{"abi":[{"type":"constructor","inputs":[],"stateMutability":"nonpayable"},{"type":"function","name":"approve","inputs":[{"name":"to","type":"address","internalType":"address"},{"name":"tokenId","type":"uint256","internalType":"uint256"}],"outputs":[],"stateMutability":"nonpayable"},{"type":"function","name":"approvedSeller","inputs":[{"name":"seller","type":"address","internalType":"address"}],"outputs":[],"stateMutability":"nonpayable"},{"type":"function","name":"approvedSellers","inputs":[{"name":"","type":"address","internalType":"address"}],"outputs":[{"name":"","type":"bool","internalType":"bool"}],"stateMutability":"view"},{"type":"function","name":"balanceOf","inputs":[{"name":"owner","type":"address","internalType":"address"}],"outputs":[{"name":"","type":"uint256","internalType":"uint256"}],"stateMutability":"view"},{"type":"function","name":"deactivateProduct","inputs":[{"name":"tokenId","type":"uint256","internalType":"uint256"}],"outputs":[],"stateMutability":"nonpayable"},{"type":"function","name":"getActiveProducts","inputs":[],"outputs":[{"name":"","type":"tuple[]","internalType":"struct ProductNFT.Product[]","components":[{"name":"tokenId","type":"uint256","internalType":"uint256"},{"name":"name","type":"string","internalType":"string"},{"name":"category","type":"string","internalType":"string"},{"name":"seller","type":"address","internalType":"address"},{"name":"active","type":"bool","internalType":"bool"}]}],"stateMutability":"view"},{"type":"function","name":"getAllProducts","inputs":[],"outputs":[{"name":"","type":"tuple[]","internalType":"struct ProductNFT.Product[]","components":[{"name":"tokenId","type":"uint256","internalType":"uint256"},{"name":"name","type":"string","internalType":"string"},{"name":"category","type":"string","internalType":"string"},{"name":"seller","type":"address","internalType":"address"},{"name":"active","type":"bool","internalType":"bool"}]}],"stateMutability":"view"},{"type":"function","name":"getApproved","inputs":[{"name":"tokenId","type":"uint256","internalType":"uint256"}],"outputs":[{"name":"","type":"address","internalType":"address"}],"stateMutability":"view"},{"type":"function","name":"getProduct","inputs":[{"name":"tokenId","type":"uint256","internalType":"uint256"}],"outputs":[{"name":"","type":"tuple","internalType":"struct ProductNFT.Product","components":[{"name":"tokenId","type":"uint256","internalType":"uint256"},{"name":"name","type":"string","internalType":"string"},{"name":"category","type":"string","internalType":"string"},{"name":"seller","type":"address","internalType":"address"},{"name":"active","type":"bool","internalType":"bool"}]}],"stateMutability":"view"},{"type":"function","name":"getProductsByCategory","inputs":[{"name":"category_","type":"string","internalType":"string"}],"outputs":[{"name":"","type":"uint256[]","internalType":"uint256[]"}],"stateMutability":"view"},{"type":"function","name":"isApprovedForAll","inputs":[{"name":"owner","type":"address","internalType":"address"},{"name":"operator","type":"address","internalType":"address"}],"outputs":[{"name":"","type":"bool","internalType":"bool"}],"stateMutability":"view"},{"type":"function","name":"marketplaceAddress","inputs":[],"outputs":[{"name":"","type":"address","internalType":"address"}],"stateMutability":"view"},{"type":"function","name":"mintProduct","inputs":[{"name":"name_","type":"string","internalType":"string"},{"name":"category_","type":"string","internalType":"string"},{"name":"tokenURI_","type":"string","internalType":"string"}],"outputs":[{"name":"","type":"uint256","internalType":"uint256"}],"stateMutability":"nonpayable"},{"type":"function","name":"name","inputs":[],"outputs":[{"name":"","type":"string","internalType":"string"}],"stateMutability":"view"},{"type":"function","name":"owner","inputs":[],"outputs":[{"name":"","type":"address","internalType":"address"}],"stateMutability":"view"},{"type":"function","name":"ownerOf","inputs":[{"name":"tokenId","type":"uint256","internalType":"uint256"}],"outputs":[{"name":"","type":"address","internalType":"address"}],"stateMutability":"view"},{"type":"function","name":"products","inputs":[{"name":"","type":"uint256","internalType":"uint256"}],"outputs":[{"name":"tokenId","type":"uint256","internalType":"uint256"},{"name":"name","type":"string","internalType":"string"},{"name":"category","type":"string","internalType":"string"},{"name":"seller","type":"address","internalType":"address"},{"name":"active","type":"bool","internalType":"bool"}],"stateMutability":"view"},{"type":"function","name":"reactivateProduct","inputs":[{"name":"tokenId","type":"uint256","internalType":"uint256"}],"outputs":[],"stateMutability":"nonpayable"},{"type":"function","name":"renounceOwnership","inputs":[],"outputs":[],"stateMutability":"nonpayable"},{"type":"function","name":"revokeSeller","inputs":[{"name":"seller","type":"address","internalType":"address"}],"outputs":[],"stateMutability":"nonpayable"},{"type":"function","name":"safeTransferFrom","inputs":[{"name":"from","type":"address","internalType":"address"},{"name":"to","type":"address","internalType":"address"},{"name":"tokenId","type":"uint256","internalType":"uint256"}],"outputs":[],"stateMutability":"nonpayable"},{"type":"function","name":"safeTransferFrom","inputs":[{"name":"from","type":"address","internalType":"address"},{"name":"to","type":"address","internalType":"address"},{"name":"tokenId","type":"uint256","internalType":"uint256"},{"name":"data","type":"bytes","internalType":"bytes"}],"outputs":[],"stateMutability":"nonpayable"},{"type":"function","name":"setApprovalForAll","inputs":[{"name":"operator","type":"address","internalType":"address"},{"name":"approved","type":"bool","internalType":"bool"}],"outputs":[],"stateMutability":"nonpayable"},{"type":"function","name":"setMarketplaceAddress","inputs":[{"name":"_marketplace","type":"address","internalType":"address"}],"outputs":[],"stateMutability":"nonpayable"},{"type":"function","name":"supportsInterface","inputs":[{"name":"interfaceId","type":"bytes4","internalType":"bytes4"}],"outputs":[{"name":"","type":"bool","internalType":"bool"}],"stateMutability":"view"},{"type":"function","name":"symbol","inputs":[],"outputs":[{"name":"","type":"string","internalType":"string"}],"stateMutability":"view"},{"type":"function","name":"tokenURI","inputs":[{"name":"tokenId","type":"uint256","internalType":"uint256"}],"outputs":[{"name":"","type":"string","internalType":"string"}],"stateMutability":"view"},{"type":"function","name":"totalProducts","inputs":[],"outputs":[{"name":"","type":"uint256","internalType":"uint256"}],"stateMutability":"view"},{"type":"function","name":"transferFrom","inputs":[{"name":"from","type":"address","internalType":"address"},{"name":"to","type":"address","internalType":"address"},{"name":"tokenId","type":"uint256","internalType":"uint256"}],"outputs":[],"stateMutability":"nonpayable"},{"type":"function","name":"transferOwnership","inputs":[{"name":"newOwner","type":"address","internalType":"address"}],"outputs":[],"stateMutability":"nonpayable"},{"type":"event","name":"Approval","inputs":[{"name":"owner","type":"address","indexed":true,"internalType":"address"},{"name":"approved","type":"address","indexed":true,"internalType":"address"},{"name":"tokenId","type":"uint256","indexed":true,"internalType":"uint256"}],"anonymous":false},{"type":"event","name":"ApprovalForAll","inputs":[{"name":"owner","type":"address","indexed":true,"internalType":"address"},{"name":"operator","type":"address","indexed":true,"internalType":"address"},{"name":"approved","type":"bool","indexed":false,"internalType":"bool"}],"anonymous":false},{"type":"event","name":"BatchMetadataUpdate","inputs":[{"name":"_fromTokenId","type":"uint256","indexed":false,"internalType":"uint256"},{"name":"_toTokenId","type":"uint256","indexed":false,"internalType":"uint256"}],"anonymous":false},{"type":"event","name":"MetadataUpdate","inputs":[{"name":"_tokenId","type":"uint256","indexed":false,"internalType":"uint256"}],"anonymous":false},{"type":"event","name":"OwnershipTransferred","inputs":[{"name":"previousOwner","type":"address","indexed":true,"internalType":"address"},{"name":"newOwner","type":"address","indexed":true,"internalType":"address"}],"anonymous":false},{"type":"event","name":"ProductDeactivated","inputs":[{"name":"tokenId","type":"uint256","indexed":true,"internalType":"uint256"}],"anonymous":false},{"type":"event","name":"ProductMinted","inputs":[{"name":"tokenId","type":"uint256","indexed":true,"internalType":"uint256"},{"name":"seller","type":"address","indexed":true,"internalType":"address"},{"name":"name","type":"string","indexed":false,"internalType":"string"},{"name":"category","type":"string","indexed":false,"internalType":"string"},{"name":"tokenURI","type":"string","indexed":false,"internalType":"string"}],"anonymous":false},{"type":"event","name":"SellerApproved","inputs":[{"name":"seller","type":"address","indexed":true,"internalType":"address"}],"anonymous":false},{"type":"event","name":"SellerRevoked","inputs":[{"name":"seller","type":"address","indexed":true,"internalType":"address"}],"anonymous":false},{"type":"event","name":"Transfer","inputs":[{"name":"from","type":"address","indexed":true,"internalType":"address"},{"name":"to","type":"address","indexed":true,"internalType":"address"},{"name":"tokenId","type":"uint256","indexed":true,"internalType":"uint256"}],"anonymous":false},{"type":"event","name":"productReactivated","inputs":[{"name":"tokenId","type":"uint256","indexed":true,"internalType":"uint256"}],"anonymous":false},{"type":"error","name":"ERC721IncorrectOwner","inputs":[{"name":"sender","type":"address","internalType":"address"},{"name":"tokenId","type":"uint256","internalType":"uint256"},{"name":"owner","type":"address","internalType":"address"}]},{"type":"error","name":"ERC721InsufficientApproval","inputs":[{"name":"operator","type":"address","internalType":"address"},{"name":"tokenId","type":"uint256","internalType":"uint256"}]},{"type":"error","name":"ERC721InvalidApprover","inputs":[{"name":"approver","type":"address","internalType":"address"}]},{"type":"error","name":"ERC721InvalidOperator","inputs":[{"name":"operator","type":"address","internalType":"address"}]},{"type":"error","name":"ERC721InvalidOwner","inputs":[{"name":"owner","type":"address","internalType":"address"}]},{"type":"error","name":"ERC721InvalidReceiver","inputs":[{"name":"receiver","type":"address","internalType":"address"}]},{"type":"error","name":"ERC721InvalidSender","inputs":[{"name":"sender","type":"address","internalType":"address"}]},{"type":"error","name":"ERC721NonexistentToken","inputs":[{"name":"tokenId","type":"uint256","internalType":"uint256"}]},{"type":"error","name":"OwnableInvalidOwner","inputs":[{"name":"owner","type":"address","internalType":"address"}]},{"type":"error","name":"OwnableUnauthorizedAccount","inputs":[{"name":"account","type":"address","internalType":"address"}]}],"bytecode":{"object":"0x608060405234801561000f575f5ffd5b50336040518060400160405280601381526020017f4d61726b6574706c6163652050726f64756374000000000000000000000000008152506040518060400160405280600581526020017f4d50524f44000000000000000000000000000000000000000000000000000000815250815f908161008b9190610434565b50806001908161009b9190610434565b5050505f73ffffffffffffffffffffffffffffffffffffffff168173ffffffffffffffffffffffffffffffffffffffff160361010e575f6040517f1e4fbdf70000000000000000000000000000000000000000000000000000000081526004016101059190610542565b60405180910390fd5b61011d8161012360201b60201c565b5061055b565b5f60075f9054906101000a900473ffffffffffffffffffffffffffffffffffffffff1690508160075f6101000a81548173ffffffffffffffffffffffffffffffffffffffff021916908373ffffffffffffffffffffffffffffffffffffffff1602179055508173ffffffffffffffffffffffffffffffffffffffff168173ffffffffffffffffffffffffffffffffffffffff167f8be0079c531659141344cd1fd0a4f28419497f9722a3daafe3b4186f6b6457e060405160405180910390a35050565b5f81519050919050565b7f4e487b71000000000000000000000000000000000000000000000000000000005f52604160045260245ffd5b7f4e487b71000000000000000000000000000000000000000000000000000000005f52602260045260245ffd5b5f600282049050600182168061026157607f821691505b6020821081036102745761027361021d565b5b50919050565b5f819050815f5260205f209050919050565b5f6020601f8301049050919050565b5f82821b905092915050565b5f600883026102d67fffffffffffffffffffffffffffffffffffffffffffffffffffffffffffffffff8261029b565b6102e0868361029b565b95508019841693508086168417925050509392505050565b5f819050919050565b5f819050919050565b5f61032461031f61031a846102f8565b610301565b6102f8565b9050919050565b5f819050919050565b61033d8361030a565b6103516103498261032b565b8484546102a7565b825550505050565b5f5f905090565b610368610359565b610373818484610334565b505050565b5f5b828110156103995761038e5f828401610360565b60018101905061037a565b505050565b601f8211156103ec57828211156103eb576103b88161027a565b6103c18361028c565b6103ca8561028c565b60208610156103d7575f90505b8083016103e682840382610378565b505050505b5b505050565b5f82821c905092915050565b5f61040c5f19846008026103f1565b1980831691505092915050565b5f61042483836103fd565b9150826002028217905092915050565b61043d826101e6565b67ffffffffffffffff811115610456576104556101f0565b5b610460825461024a565b61046b82828561039e565b5f60209050601f83116001811461049c575f841561048a578287015190505b6104948582610419565b8655506104fb565b601f1984166104aa8661027a565b5f5b828110156104d1578489015182556001820191506020850194506020810190506104ac565b868310156104ee57848901516104ea601f8916826103fd565b8355505b6001600288020188555050505b505050505050565b5f73ffffffffffffffffffffffffffffffffffffffff82169050919050565b5f61052c82610503565b9050919050565b61053c81610522565b82525050565b5f6020820190506105555f830184610533565b92915050565b6142af806105685f395ff3fe608060405234801561000f575f5ffd5b50600436106101d8575f3560e01c8063931e52ee11610102578063b9db15b4116100a0578063e985e9c51161006f578063e985e9c514610568578063f2fde38b14610598578063f44f66b4146105b4578063fd77e5de146105e4576101d8565b8063b9db15b4146104cc578063c87b56dd146104fc578063ca0f46c01461052c578063daa17f491461054a576101d8565b80639b9d326d116100dc5780639b9d326d1461045a578063a22cb46514610478578063b47cc55614610494578063b88d4fde146104b0576101d8565b8063931e52ee146103f057806395d89b411461042057806396a913bf1461043e576101d8565b80636352211e1161017a5780637acc0b20116101495780637acc0b20146103525780638d222f36146103865780638da5cb5b146103a25780638f38cc7b146103c0576101d8565b80636352211e146102cc5780636e0e5332146102fc57806370a0823114610318578063715018a614610348576101d8565b8063081812fc116101b6578063081812fc14610248578063095ea7b31461027857806323b872dd1461029457806342842e0e146102b0576101d8565b806301ffc9a7146101dc57806302ee3a521461020c57806306fdde031461022a575b5f5ffd5b6101f660048036038101906101f19190612fa2565b610600565b6040516102039190612fe7565b60405180910390f35b610214610660565b604051610221919061320b565b60405180910390f35b6102326108c7565b60405161023f9190613273565b60405180910390f35b610262600480360381019061025d91906132bd565b610956565b60405161026f91906132f7565b60405180910390f35b610292600480360381019061028d919061333a565b610971565b005b6102ae60048036038101906102a99190613378565b610987565b005b6102ca60048036038101906102c59190613378565b610a86565b005b6102e660048036038101906102e191906132bd565b610aa5565b6040516102f391906132f7565b60405180910390f35b610316600480360381019061031191906132bd565b610ab6565b005b610332600480360381019061032d91906133c8565b610b70565b60405161033f9190613402565b60405180910390f35b610350610c26565b005b61036c600480360381019061036791906132bd565b610c39565b60405161037d95949392919061341b565b60405180910390f35b6103a0600480360381019061039b91906133c8565b610da3565b005b6103aa610eb4565b6040516103b791906132f7565b60405180910390f35b6103da60048036038101906103d591906134db565b610edc565b6040516103e791906135ce565b60405180910390f35b61040a600480360381019061040591906133c8565b610f53565b6040516104179190612fe7565b60405180910390f35b610428610f70565b6040516104359190613273565b60405180910390f35b610458600480360381019061045391906133c8565b611000565b005b6104626110a2565b60405161046f9190613402565b60405180910390f35b610492600480360381019061048d9190613618565b6110ab565b005b6104ae60048036038101906104a991906133c8565b6110c1565b005b6104ca60048036038101906104c5919061377e565b61117a565b005b6104e660048036038101906104e191906132bd565b61119f565b6040516104f39190613878565b60405180910390f35b610516600480360381019061051191906132bd565b6113b8565b6040516105239190613273565b60405180910390f35b610534611434565b604051610541919061320b565b60405180910390f35b610552611720565b60405161055f91906132f7565b60405180910390f35b610582600480360381019061057d9190613898565b611745565b60405161058f9190612fe7565b60405180910390f35b6105b260048036038101906105ad91906133c8565b6117d3565b005b6105ce60048036038101906105c991906138d6565b611857565b6040516105db9190613402565b60405180910390f35b6105fe60048036038101906105f991906132bd565b611d03565b005b5f634906490660e01b7bffffffffffffffffffffffffffffffffffffffffffffffffffffffff1916827bffffffffffffffffffffffffffffffffffffffffffffffffffffffff19161480610659575061065882611dbc565b5b9050919050565b60605f60085490505f8167ffffffffffffffff8111156106835761068261365a565b5b6040519080825280602002602001820160405280156106bc57816020015b6106a9612ef8565b8152602001906001900390816106a15790505b5090505f600190505b8281116108be57600b5f8281526020019081526020015f206040518060a00160405290815f8201548152602001600182018054610701906139b3565b80601f016020809104026020016040519081016040528092919081815260200182805461072d906139b3565b80156107785780601f1061074f57610100808354040283529160200191610778565b820191905f5260205f20905b81548152906001019060200180831161075b57829003601f168201915b50505050508152602001600282018054610791906139b3565b80601f01602080910402602001604051908101604052809291908181526020018280546107bd906139b3565b80156108085780601f106107df57610100808354040283529160200191610808565b820191905f5260205f20905b8154815290600101906020018083116107eb57829003601f168201915b50505050508152602001600382015f9054906101000a900473ffffffffffffffffffffffffffffffffffffffff1673ffffffffffffffffffffffffffffffffffffffff1673ffffffffffffffffffffffffffffffffffffffff1681526020016003820160149054906101000a900460ff1615151515815250508260018361088f9190613a10565b815181106108a05761089f613a43565b5b602002602001018190525080806108b690613a70565b9150506106c5565b50809250505090565b60605f80546108d5906139b3565b80601f0160208091040260200160405190810160405280929190818152602001828054610901906139b3565b801561094c5780601f106109235761010080835404028352916020019161094c565b820191905f5260205f20905b81548152906001019060200180831161092f57829003601f168201915b5050505050905090565b5f61096082611e9d565b5061096a82611f23565b9050919050565b610983828261097e611f5c565b611f63565b5050565b5f73ffffffffffffffffffffffffffffffffffffffff168273ffffffffffffffffffffffffffffffffffffffff16036109f7575f6040517f64a0ae920000000000000000000000000000000000000000000000000000000081526004016109ee91906132f7565b60405180910390fd5b5f610a0a8383610a05611f5c565b611f75565b90508373ffffffffffffffffffffffffffffffffffffffff168173ffffffffffffffffffffffffffffffffffffffff1614610a80578382826040517f64283d7b000000000000000000000000000000000000000000000000000000008152600401610a7793929190613ab7565b60405180910390fd5b50505050565b610aa083838360405180602001604052805f81525061117a565b505050565b5f610aaf82611e9d565b9050919050565b610abe612180565b80600b5f8381526020019081526020015f205f015414610b13576040517f08c379a0000000000000000000000000000000000000000000000000000000008152600401610b0a90613b36565b60405180910390fd5b6001600b5f8381526020019081526020015f2060030160146101000a81548160ff021916908315150217905550807f26cd8c8ca4d07995fab9cc131539943a1cffc98687dcdca0ddc7e94b812c1b5f60405160405180910390a250565b5f5f73ffffffffffffffffffffffffffffffffffffffff168273ffffffffffffffffffffffffffffffffffffffff1603610be1575f6040517f89c62b64000000000000000000000000000000000000000000000000000000008152600401610bd891906132f7565b60405180910390fd5b60035f8373ffffffffffffffffffffffffffffffffffffffff1673ffffffffffffffffffffffffffffffffffffffff1681526020019081526020015f20549050919050565b610c2e612180565b610c375f612207565b565b600b602052805f5260405f205f91509050805f015490806001018054610c5e906139b3565b80601f0160208091040260200160405190810160405280929190818152602001828054610c8a906139b3565b8015610cd55780601f10610cac57610100808354040283529160200191610cd5565b820191905f5260205f20905b815481529060010190602001808311610cb857829003601f168201915b505050505090806002018054610cea906139b3565b80601f0160208091040260200160405190810160405280929190818152602001828054610d16906139b3565b8015610d615780601f10610d3857610100808354040283529160200191610d61565b820191905f5260205f20905b815481529060010190602001808311610d4457829003601f168201915b505050505090806003015f9054906101000a900473ffffffffffffffffffffffffffffffffffffffff16908060030160149054906101000a900460ff16905085565b610dab612180565b5f73ffffffffffffffffffffffffffffffffffffffff168173ffffffffffffffffffffffffffffffffffffffff1603610e19576040517f08c379a0000000000000000000000000000000000000000000000000000000008152600401610e1090613b9e565b60405180910390fd5b6001600a5f8373ffffffffffffffffffffffffffffffffffffffff1673ffffffffffffffffffffffffffffffffffffffff1681526020019081526020015f205f6101000a81548160ff0219169083151502179055508073ffffffffffffffffffffffffffffffffffffffff167f24a359de8d25078c9806de6ae37a3aa35f858017c11cc934f9c9071040206cc960405160405180910390a250565b5f60075f9054906101000a900473ffffffffffffffffffffffffffffffffffffffff16905090565b6060600c8383604051610ef0929190613bea565b9081526020016040518091039020805480602002602001604051908101604052809291908181526020018280548015610f4657602002820191905f5260205f20905b815481526020019060010190808311610f32575b5050505050905092915050565b600a602052805f5260405f205f915054906101000a900460ff1681565b606060018054610f7f906139b3565b80601f0160208091040260200160405190810160405280929190818152602001828054610fab906139b3565b8015610ff65780601f10610fcd57610100808354040283529160200191610ff6565b820191905f5260205f20905b815481529060010190602001808311610fd957829003601f168201915b5050505050905090565b611008612180565b5f600a5f8373ffffffffffffffffffffffffffffffffffffffff1673ffffffffffffffffffffffffffffffffffffffff1681526020019081526020015f205f6101000a81548160ff0219169083151502179055508073ffffffffffffffffffffffffffffffffffffffff167fea80e8e27db0832060df75abe3292d36558c46bc38fddd2aa28f5edd3e168c3960405160405180910390a250565b5f600854905090565b6110bd6110b6611f5c565b83836122ca565b5050565b6110c9612180565b5f73ffffffffffffffffffffffffffffffffffffffff168173ffffffffffffffffffffffffffffffffffffffff1603611137576040517f08c379a000000000000000000000000000000000000000000000000000000000815260040161112e90613b9e565b60405180910390fd5b8060095f6101000a81548173ffffffffffffffffffffffffffffffffffffffff021916908373ffffffffffffffffffffffffffffffffffffffff16021790555050565b611185848484610987565b611199611190611f5c565b858585856124a3565b50505050565b6111a7612ef8565b81600b5f8481526020019081526020015f205f0154146111fc576040517f08c379a00000000000000000000000000000000000000000000000000000000081526004016111f390613b36565b60405180910390fd5b600b5f8381526020019081526020015f206040518060a00160405290815f8201548152602001600182018054611231906139b3565b80601f016020809104026020016040519081016040528092919081815260200182805461125d906139b3565b80156112a85780601f1061127f576101008083540402835291602001916112a8565b820191905f5260205f20905b81548152906001019060200180831161128b57829003601f168201915b505050505081526020016002820180546112c1906139b3565b80601f01602080910402602001604051908101604052809291908181526020018280546112ed906139b3565b80156113385780601f1061130f57610100808354040283529160200191611338565b820191905f5260205f20905b81548152906001019060200180831161131b57829003601f168201915b50505050508152602001600382015f9054906101000a900473ffffffffffffffffffffffffffffffffffffffff1673ffffffffffffffffffffffffffffffffffffffff1673ffffffffffffffffffffffffffffffffffffffff1681526020016003820160149054906101000a900460ff1615151515815250509050919050565b60606113c382611e9d565b505f6113cd61264f565b90505f6113d984612665565b90505f8251036113ed57809250505061142f565b5f81511115611421578181604051602001611409929190613c32565b6040516020818303038152906040529250505061142f565b61142a84612706565b925050505b919050565b60605f60085490505f5f600190505b82811161149357600b5f8281526020019081526020015f2060030160149054906101000a900460ff161561148057818061147c90613a70565b9250505b808061148b90613a70565b915050611443565b505f8167ffffffffffffffff8111156114af576114ae61365a565b5b6040519080825280602002602001820160405280156114e857816020015b6114d5612ef8565b8152602001906001900390816114cd5790505b5090505f5f600190505b84811161171557600b5f8281526020019081526020015f2060030160149054906101000a900460ff161561170257600b5f8281526020019081526020015f206040518060a00160405290815f8201548152602001600182018054611555906139b3565b80601f0160208091040260200160405190810160405280929190818152602001828054611581906139b3565b80156115cc5780601f106115a3576101008083540402835291602001916115cc565b820191905f5260205f20905b8154815290600101906020018083116115af57829003601f168201915b505050505081526020016002820180546115e5906139b3565b80601f0160208091040260200160405190810160405280929190818152602001828054611611906139b3565b801561165c5780601f106116335761010080835404028352916020019161165c565b820191905f5260205f20905b81548152906001019060200180831161163f57829003601f168201915b50505050508152602001600382015f9054906101000a900473ffffffffffffffffffffffffffffffffffffffff1673ffffffffffffffffffffffffffffffffffffffff1673ffffffffffffffffffffffffffffffffffffffff1681526020016003820160149054906101000a900460ff1615151515815250508383815181106116e8576116e7613a43565b5b602002602001018190525081806116fe90613a70565b9250505b808061170d90613a70565b9150506114f2565b508194505050505090565b60095f9054906101000a900473ffffffffffffffffffffffffffffffffffffffff1681565b5f60055f8473ffffffffffffffffffffffffffffffffffffffff1673ffffffffffffffffffffffffffffffffffffffff1681526020019081526020015f205f8373ffffffffffffffffffffffffffffffffffffffff1673ffffffffffffffffffffffffffffffffffffffff1681526020019081526020015f205f9054906101000a900460ff16905092915050565b6117db612180565b5f73ffffffffffffffffffffffffffffffffffffffff168173ffffffffffffffffffffffffffffffffffffffff160361184b575f6040517f1e4fbdf700000000000000000000000000000000000000000000000000000000815260040161184291906132f7565b60405180910390fd5b61185481612207565b50565b5f611860610eb4565b73ffffffffffffffffffffffffffffffffffffffff163373ffffffffffffffffffffffffffffffffffffffff1614806118df5750600a5f3373ffffffffffffffffffffffffffffffffffffffff1673ffffffffffffffffffffffffffffffffffffffff1681526020019081526020015f205f9054906101000a900460ff165b61191e576040517f08c379a000000000000000000000000000000000000000000000000000000000815260040161191590613cc5565b60405180910390fd5b5f8787905011611963576040517f08c379a000000000000000000000000000000000000000000000000000000000815260040161195a90613d2d565b60405180910390fd5b5f85859050116119a8576040517f08c379a000000000000000000000000000000000000000000000000000000000815260040161199f90613d95565b60405180910390fd5b5f83839050116119ed576040517f08c379a00000000000000000000000000000000000000000000000000000000081526004016119e490613dfd565b60405180910390fd5b600160085f8282546119ff9190613e1b565b925050819055505f6008549050611a16338261276c565b611a638185858080601f0160208091040260200160405190810160405280939291908181526020018383808284375f81840152601f19601f82011690508083019250505050505050612789565b6040518060a0016040528082815260200189898080601f0160208091040260200160405190810160405280939291908181526020018383808284375f81840152601f19601f82011690508083019250505050505050815260200187878080601f0160208091040260200160405190810160405280939291908181526020018383808284375f81840152601f19601f8201169050808301925050505050505081526020013373ffffffffffffffffffffffffffffffffffffffff16815260200160011515815250600b5f8381526020019081526020015f205f820151815f01556020820151816001019081611b579190613fff565b506040820151816002019081611b6d9190613fff565b506060820151816003015f6101000a81548173ffffffffffffffffffffffffffffffffffffffff021916908373ffffffffffffffffffffffffffffffffffffffff16021790555060808201518160030160146101000a81548160ff021916908315150217905550905050600c8686604051611be9929190613bea565b908152602001604051809103902081908060018154018082558091505060019003905f5260205f20015f90919091909150555f73ffffffffffffffffffffffffffffffffffffffff1660095f9054906101000a900473ffffffffffffffffffffffffffffffffffffffff1673ffffffffffffffffffffffffffffffffffffffff1614611c9c57611c9b60095f9054906101000a900473ffffffffffffffffffffffffffffffffffffffff1660016110ab565b5b3373ffffffffffffffffffffffffffffffffffffffff16817fcd2677b976ea4d91eb2c5853f9c1c5b7519adb211cbe9553c720c5692fec087f8a8a8a8a8a8a604051611ced969594939291906140fa565b60405180910390a3809150509695505050505050565b611d0b612180565b80600b5f8381526020019081526020015f205f015414611d60576040517f08c379a0000000000000000000000000000000000000000000000000000000008152600401611d5790613b36565b60405180910390fd5b5f600b5f8381526020019081526020015f2060030160146101000a81548160ff021916908315150217905550807f241c84b17626110b8c42e26f8f7de483066e7f266953509e01046f09e6fdd6cc60405160405180910390a250565b5f7f80ac58cd000000000000000000000000000000000000000000000000000000007bffffffffffffffffffffffffffffffffffffffffffffffffffffffff1916827bffffffffffffffffffffffffffffffffffffffffffffffffffffffff19161480611e8657507f5b5e139f000000000000000000000000000000000000000000000000000000007bffffffffffffffffffffffffffffffffffffffffffffffffffffffff1916827bffffffffffffffffffffffffffffffffffffffffffffffffffffffff1916145b80611e965750611e95826127e3565b5b9050919050565b5f5f611ea88361284c565b90505f73ffffffffffffffffffffffffffffffffffffffff168173ffffffffffffffffffffffffffffffffffffffff1603611f1a57826040517f7e273289000000000000000000000000000000000000000000000000000000008152600401611f119190613402565b60405180910390fd5b80915050919050565b5f60045f8381526020019081526020015f205f9054906101000a900473ffffffffffffffffffffffffffffffffffffffff169050919050565b5f33905090565b611f708383836001612885565b505050565b5f5f611f808461284c565b90505f73ffffffffffffffffffffffffffffffffffffffff168373ffffffffffffffffffffffffffffffffffffffff1614611fc157611fc0818486612a44565b5b5f73ffffffffffffffffffffffffffffffffffffffff168173ffffffffffffffffffffffffffffffffffffffff161461204c576120005f855f5f612885565b600160035f8373ffffffffffffffffffffffffffffffffffffffff1673ffffffffffffffffffffffffffffffffffffffff1681526020019081526020015f205f82825403925050819055505b5f73ffffffffffffffffffffffffffffffffffffffff168573ffffffffffffffffffffffffffffffffffffffff16146120cb57600160035f8773ffffffffffffffffffffffffffffffffffffffff1673ffffffffffffffffffffffffffffffffffffffff1681526020019081526020015f205f82825401925050819055505b8460025f8681526020019081526020015f205f6101000a81548173ffffffffffffffffffffffffffffffffffffffff021916908373ffffffffffffffffffffffffffffffffffffffff160217905550838573ffffffffffffffffffffffffffffffffffffffff168273ffffffffffffffffffffffffffffffffffffffff167fddf252ad1be2c89b69c2b068fc378daa952ba7f163c4a11628f55a4df523b3ef60405160405180910390a4809150509392505050565b612188611f5c565b73ffffffffffffffffffffffffffffffffffffffff166121a6610eb4565b73ffffffffffffffffffffffffffffffffffffffff1614612205576121c9611f5c565b6040517f118cdaa70000000000000000000000000000000000000000000000000000000081526004016121fc91906132f7565b60405180910390fd5b565b5f60075f9054906101000a900473ffffffffffffffffffffffffffffffffffffffff1690508160075f6101000a81548173ffffffffffffffffffffffffffffffffffffffff021916908373ffffffffffffffffffffffffffffffffffffffff1602179055508173ffffffffffffffffffffffffffffffffffffffff168173ffffffffffffffffffffffffffffffffffffffff167f8be0079c531659141344cd1fd0a4f28419497f9722a3daafe3b4186f6b6457e060405160405180910390a35050565b5f73ffffffffffffffffffffffffffffffffffffffff168373ffffffffffffffffffffffffffffffffffffffff160361233a575f6040517fa9fbf51f00000000000000000000000000000000000000000000000000000000815260040161233191906132f7565b60405180910390fd5b5f73ffffffffffffffffffffffffffffffffffffffff168273ffffffffffffffffffffffffffffffffffffffff16036123aa57816040517f5b08ba180000000000000000000000000000000000000000000000000000000081526004016123a191906132f7565b60405180910390fd5b8060055f8573ffffffffffffffffffffffffffffffffffffffff1673ffffffffffffffffffffffffffffffffffffffff1681526020019081526020015f205f8473ffffffffffffffffffffffffffffffffffffffff1673ffffffffffffffffffffffffffffffffffffffff1681526020019081526020015f205f6101000a81548160ff0219169083151502179055508173ffffffffffffffffffffffffffffffffffffffff168373ffffffffffffffffffffffffffffffffffffffff167f17307eab39ab6107e8899845ad3d59bd9653f200f220920489ca2b5937696c31836040516124969190612fe7565b60405180910390a3505050565b5f8373ffffffffffffffffffffffffffffffffffffffff163b1115612648578273ffffffffffffffffffffffffffffffffffffffff1663150b7a02868685856040518563ffffffff1660e01b8152600401612501949392919061419c565b6020604051808303815f875af192505050801561253c57506040513d601f19601f8201168201806040525081019061253991906141fa565b60015b6125bd573d805f811461256a576040519150601f19603f3d011682016040523d82523d5f602084013e61256f565b606091505b505f8151036125b557836040517f64a0ae920000000000000000000000000000000000000000000000000000000081526004016125ac91906132f7565b60405180910390fd5b805160208201fd5b63150b7a0260e01b7bffffffffffffffffffffffffffffffffffffffffffffffffffffffff1916817bffffffffffffffffffffffffffffffffffffffffffffffffffffffff19161461264657836040517f64a0ae9200000000000000000000000000000000000000000000000000000000815260040161263d91906132f7565b60405180910390fd5b505b5050505050565b606060405180602001604052805f815250905090565b606060065f8381526020019081526020015f208054612683906139b3565b80601f01602080910402602001604051908101604052809291908181526020018280546126af906139b3565b80156126fa5780601f106126d1576101008083540402835291602001916126fa565b820191905f5260205f20905b8154815290600101906020018083116126dd57829003601f168201915b50505050509050919050565b606061271182611e9d565b505f61271b61264f565b90505f8151116127395760405180602001604052805f815250612764565b8061274384612b07565b604051602001612754929190613c32565b6040516020818303038152906040525b915050919050565b612785828260405180602001604052805f815250612bd1565b5050565b8060065f8481526020019081526020015f2090816127a79190613fff565b507ff8e1a15aba9398e019f0b49df1a4fde98ee17ae345cb5f6b5e2c27f5033e8ce7826040516127d79190613402565b60405180910390a15050565b5f7f01ffc9a7000000000000000000000000000000000000000000000000000000007bffffffffffffffffffffffffffffffffffffffffffffffffffffffff1916827bffffffffffffffffffffffffffffffffffffffffffffffffffffffff1916149050919050565b5f60025f8381526020019081526020015f205f9054906101000a900473ffffffffffffffffffffffffffffffffffffffff169050919050565b80806128bd57505f73ffffffffffffffffffffffffffffffffffffffff168273ffffffffffffffffffffffffffffffffffffffff1614155b156129ef575f6128cc84611e9d565b90505f73ffffffffffffffffffffffffffffffffffffffff168373ffffffffffffffffffffffffffffffffffffffff161415801561293657508273ffffffffffffffffffffffffffffffffffffffff168173ffffffffffffffffffffffffffffffffffffffff1614155b801561294957506129478184611745565b155b1561298b57826040517fa9fbf51f00000000000000000000000000000000000000000000000000000000815260040161298291906132f7565b60405180910390fd5b81156129ed57838573ffffffffffffffffffffffffffffffffffffffff168273ffffffffffffffffffffffffffffffffffffffff167f8c5be1e5ebec7d5bd14f71427d1e84f3dd0314c0f7b2291e5b200ac8c7c3b92560405160405180910390a45b505b8360045f8581526020019081526020015f205f6101000a81548173ffffffffffffffffffffffffffffffffffffffff021916908373ffffffffffffffffffffffffffffffffffffffff16021790555050505050565b612a4f838383612bf4565b612b02575f73ffffffffffffffffffffffffffffffffffffffff168373ffffffffffffffffffffffffffffffffffffffff1603612ac357806040517f7e273289000000000000000000000000000000000000000000000000000000008152600401612aba9190613402565b60405180910390fd5b81816040517f177e802f000000000000000000000000000000000000000000000000000000008152600401612af9929190614225565b60405180910390fd5b505050565b60605f6001612b1584612cb4565b0190505f8167ffffffffffffffff811115612b3357612b3261365a565b5b6040519080825280601f01601f191660200182016040528015612b655781602001600182028036833780820191505090505b5090505f82602083010190505b600115612bc6578080600190039150507f3031323334353637383961626364656600000000000000000000000000000000600a86061a8153600a8581612bbb57612bba61424c565b5b0494505f8503612b72575b819350505050919050565b612bdb8383612e05565b612bef612be6611f5c565b5f8585856124a3565b505050565b5f5f73ffffffffffffffffffffffffffffffffffffffff168373ffffffffffffffffffffffffffffffffffffffff1614158015612cab57508273ffffffffffffffffffffffffffffffffffffffff168473ffffffffffffffffffffffffffffffffffffffff161480612c6c5750612c6b8484611745565b5b80612caa57508273ffffffffffffffffffffffffffffffffffffffff16612c9283611f23565b73ffffffffffffffffffffffffffffffffffffffff16145b5b90509392505050565b5f5f5f90507a184f03e93ff9f4daa797ed6e38ed64bf6a1f0100000000000000008310612d10577a184f03e93ff9f4daa797ed6e38ed64bf6a1f0100000000000000008381612d0657612d0561424c565b5b0492506040810190505b6d04ee2d6d415b85acef81000000008310612d4d576d04ee2d6d415b85acef81000000008381612d4357612d4261424c565b5b0492506020810190505b662386f26fc100008310612d7c57662386f26fc100008381612d7257612d7161424c565b5b0492506010810190505b6305f5e1008310612da5576305f5e1008381612d9b57612d9a61424c565b5b0492506008810190505b6127108310612dca576127108381612dc057612dbf61424c565b5b0492506004810190505b60648310612ded5760648381612de357612de261424c565b5b0492506002810190505b600a8310612dfc576001810190505b80915050919050565b5f73ffffffffffffffffffffffffffffffffffffffff168273ffffffffffffffffffffffffffffffffffffffff1603612e75575f6040517f64a0ae92000000000000000000000000000000000000000000000000000000008152600401612e6c91906132f7565b60405180910390fd5b5f612e8183835f611f75565b90505f73ffffffffffffffffffffffffffffffffffffffff168173ffffffffffffffffffffffffffffffffffffffff1614612ef3575f6040517f73c6ac6e000000000000000000000000000000000000000000000000000000008152600401612eea91906132f7565b60405180910390fd5b505050565b6040518060a001604052805f815260200160608152602001606081526020015f73ffffffffffffffffffffffffffffffffffffffff1681526020015f151581525090565b5f604051905090565b5f5ffd5b5f5ffd5b5f7fffffffff0000000000000000000000000000000000000000000000000000000082169050919050565b612f8181612f4d565b8114612f8b575f5ffd5b50565b5f81359050612f9c81612f78565b92915050565b5f60208284031215612fb757612fb6612f45565b5b5f612fc484828501612f8e565b91505092915050565b5f8115159050919050565b612fe181612fcd565b82525050565b5f602082019050612ffa5f830184612fd8565b92915050565b5f81519050919050565b5f82825260208201905092915050565b5f819050602082019050919050565b5f819050919050565b61303b81613029565b82525050565b5f81519050919050565b5f82825260208201905092915050565b8281835e5f83830152505050565b5f601f19601f8301169050919050565b5f61308382613041565b61308d818561304b565b935061309d81856020860161305b565b6130a681613069565b840191505092915050565b5f73ffffffffffffffffffffffffffffffffffffffff82169050919050565b5f6130da826130b1565b9050919050565b6130ea816130d0565b82525050565b6130f981612fcd565b82525050565b5f60a083015f8301516131145f860182613032565b506020830151848203602086015261312c8282613079565b915050604083015184820360408601526131468282613079565b915050606083015161315b60608601826130e1565b50608083015161316e60808601826130f0565b508091505092915050565b5f61318483836130ff565b905092915050565b5f602082019050919050565b5f6131a282613000565b6131ac818561300a565b9350836020820285016131be8561301a565b805f5b858110156131f957848403895281516131da8582613179565b94506131e58361318c565b925060208a019950506001810190506131c1565b50829750879550505050505092915050565b5f6020820190508181035f8301526132238184613198565b905092915050565b5f82825260208201905092915050565b5f61324582613041565b61324f818561322b565b935061325f81856020860161305b565b61326881613069565b840191505092915050565b5f6020820190508181035f83015261328b818461323b565b905092915050565b61329c81613029565b81146132a6575f5ffd5b50565b5f813590506132b781613293565b92915050565b5f602082840312156132d2576132d1612f45565b5b5f6132df848285016132a9565b91505092915050565b6132f1816130d0565b82525050565b5f60208201905061330a5f8301846132e8565b92915050565b613319816130d0565b8114613323575f5ffd5b50565b5f8135905061333481613310565b92915050565b5f5f604083850312156133505761334f612f45565b5b5f61335d85828601613326565b925050602061336e858286016132a9565b9150509250929050565b5f5f5f6060848603121561338f5761338e612f45565b5b5f61339c86828701613326565b93505060206133ad86828701613326565b92505060406133be868287016132a9565b9150509250925092565b5f602082840312156133dd576133dc612f45565b5b5f6133ea84828501613326565b91505092915050565b6133fc81613029565b82525050565b5f6020820190506134155f8301846133f3565b92915050565b5f60a08201905061342e5f8301886133f3565b8181036020830152613440818761323b565b90508181036040830152613454818661323b565b905061346360608301856132e8565b6134706080830184612fd8565b9695505050505050565b5f5ffd5b5f5ffd5b5f5ffd5b5f5f83601f84011261349b5761349a61347a565b5b8235905067ffffffffffffffff8111156134b8576134b761347e565b5b6020830191508360018202830111156134d4576134d3613482565b5b9250929050565b5f5f602083850312156134f1576134f0612f45565b5b5f83013567ffffffffffffffff81111561350e5761350d612f49565b5b61351a85828601613486565b92509250509250929050565b5f81519050919050565b5f82825260208201905092915050565b5f819050602082019050919050565b5f61355a8383613032565b60208301905092915050565b5f602082019050919050565b5f61357c82613526565b6135868185613530565b935061359183613540565b805f5b838110156135c15781516135a8888261354f565b97506135b383613566565b925050600181019050613594565b5085935050505092915050565b5f6020820190508181035f8301526135e68184613572565b905092915050565b6135f781612fcd565b8114613601575f5ffd5b50565b5f81359050613612816135ee565b92915050565b5f5f6040838503121561362e5761362d612f45565b5b5f61363b85828601613326565b925050602061364c85828601613604565b9150509250929050565b5f5ffd5b7f4e487b71000000000000000000000000000000000000000000000000000000005f52604160045260245ffd5b61369082613069565b810181811067ffffffffffffffff821117156136af576136ae61365a565b5b80604052505050565b5f6136c1612f3c565b90506136cd8282613687565b919050565b5f67ffffffffffffffff8211156136ec576136eb61365a565b5b6136f582613069565b9050602081019050919050565b828183375f83830152505050565b5f61372261371d846136d2565b6136b8565b90508281526020810184848401111561373e5761373d613656565b5b613749848285613702565b509392505050565b5f82601f8301126137655761376461347a565b5b8135613775848260208601613710565b91505092915050565b5f5f5f5f6080858703121561379657613795612f45565b5b5f6137a387828801613326565b94505060206137b487828801613326565b93505060406137c5878288016132a9565b925050606085013567ffffffffffffffff8111156137e6576137e5612f49565b5b6137f287828801613751565b91505092959194509250565b5f60a083015f8301516138135f860182613032565b506020830151848203602086015261382b8282613079565b915050604083015184820360408601526138458282613079565b915050606083015161385a60608601826130e1565b50608083015161386d60808601826130f0565b508091505092915050565b5f6020820190508181035f83015261389081846137fe565b905092915050565b5f5f604083850312156138ae576138ad612f45565b5b5f6138bb85828601613326565b92505060206138cc85828601613326565b9150509250929050565b5f5f5f5f5f5f606087890312156138f0576138ef612f45565b5b5f87013567ffffffffffffffff81111561390d5761390c612f49565b5b61391989828a01613486565b9650965050602087013567ffffffffffffffff81111561393c5761393b612f49565b5b61394889828a01613486565b9450945050604087013567ffffffffffffffff81111561396b5761396a612f49565b5b61397789828a01613486565b92509250509295509295509295565b7f4e487b71000000000000000000000000000000000000000000000000000000005f52602260045260245ffd5b5f60028204905060018216806139ca57607f821691505b6020821081036139dd576139dc613986565b5b50919050565b7f4e487b71000000000000000000000000000000000000000000000000000000005f52601160045260245ffd5b5f613a1a82613029565b9150613a2583613029565b9250828203905081811115613a3d57613a3c6139e3565b5b92915050565b7f4e487b71000000000000000000000000000000000000000000000000000000005f52603260045260245ffd5b5f613a7a82613029565b91507fffffffffffffffffffffffffffffffffffffffffffffffffffffffffffffffff8203613aac57613aab6139e3565b5b600182019050919050565b5f606082019050613aca5f8301866132e8565b613ad760208301856133f3565b613ae460408301846132e8565b949350505050565b7f50726f647563744e46543a20756e6b6e6f776e20746f6b656e000000000000005f82015250565b5f613b2060198361322b565b9150613b2b82613aec565b602082019050919050565b5f6020820190508181035f830152613b4d81613b14565b9050919050565b7f50726f647563744e46543a20696e76616c6964206164647265737300000000005f82015250565b5f613b88601b8361322b565b9150613b9382613b54565b602082019050919050565b5f6020820190508181035f830152613bb581613b7c565b9050919050565b5f81905092915050565b5f613bd18385613bbc565b9350613bde838584613702565b82840190509392505050565b5f613bf6828486613bc6565b91508190509392505050565b5f613c0c82613041565b613c168185613bbc565b9350613c2681856020860161305b565b80840191505092915050565b5f613c3d8285613c02565b9150613c498284613c02565b91508190509392505050565b7f50726f647563744e46543a206e6f742061646d696e206f7220617070726f76655f8201527f642073656c6c6572000000000000000000000000000000000000000000000000602082015250565b5f613caf60288361322b565b9150613cba82613c55565b604082019050919050565b5f6020820190508181035f830152613cdc81613ca3565b9050919050565b7f50726f647563744e46543a20656d707479206e616d65000000000000000000005f82015250565b5f613d1760168361322b565b9150613d2282613ce3565b602082019050919050565b5f6020820190508181035f830152613d4481613d0b565b9050919050565b7f50726f647563744e46543a20656d7074792063617465676f72790000000000005f82015250565b5f613d7f601a8361322b565b9150613d8a82613d4b565b602082019050919050565b5f6020820190508181035f830152613dac81613d73565b9050919050565b7f50726f647563744e46543a20656d70747920746f6b656e2055524900000000005f82015250565b5f613de7601b8361322b565b9150613df282613db3565b602082019050919050565b5f6020820190508181035f830152613e1481613ddb565b9050919050565b5f613e2582613029565b9150613e3083613029565b9250828201905080821115613e4857613e476139e3565b5b92915050565b5f819050815f5260205f209050919050565b5f6020601f8301049050919050565b5f82821b905092915050565b5f60088302613eaa7fffffffffffffffffffffffffffffffffffffffffffffffffffffffffffffffff82613e6f565b613eb48683613e6f565b95508019841693508086168417925050509392505050565b5f819050919050565b5f613eef613eea613ee584613029565b613ecc565b613029565b9050919050565b5f819050919050565b613f0883613ed5565b613f1c613f1482613ef6565b848454613e7b565b825550505050565b5f5f905090565b613f33613f24565b613f3e818484613eff565b505050565b5f5b82811015613f6457613f595f828401613f2b565b600181019050613f45565b505050565b601f821115613fb75782821115613fb657613f8381613e4e565b613f8c83613e60565b613f9585613e60565b6020861015613fa2575f90505b808301613fb182840382613f43565b505050505b5b505050565b5f82821c905092915050565b5f613fd75f1984600802613fbc565b1980831691505092915050565b5f613fef8383613fc8565b9150826002028217905092915050565b61400882613041565b67ffffffffffffffff8111156140215761402061365a565b5b61402b82546139b3565b614036828285613f69565b5f60209050601f831160018114614067575f8415614055578287015190505b61405f8582613fe4565b8655506140c6565b601f19841661407586613e4e565b5f5b8281101561409c57848901518255600182019150602085019450602081019050614077565b868310156140b957848901516140b5601f891682613fc8565b8355505b6001600288020188555050505b505050505050565b5f6140d9838561322b565b93506140e6838584613702565b6140ef83613069565b840190509392505050565b5f6060820190508181035f83015261411381888a6140ce565b905081810360208301526141288186886140ce565b9050818103604083015261413d8184866140ce565b9050979650505050505050565b5f81519050919050565b5f82825260208201905092915050565b5f61416e8261414a565b6141788185614154565b935061418881856020860161305b565b61419181613069565b840191505092915050565b5f6080820190506141af5f8301876132e8565b6141bc60208301866132e8565b6141c960408301856133f3565b81810360608301526141db8184614164565b905095945050505050565b5f815190506141f481612f78565b92915050565b5f6020828403121561420f5761420e612f45565b5b5f61421c848285016141e6565b91505092915050565b5f6040820190506142385f8301856132e8565b61424560208301846133f3565b9392505050565b7f4e487b71000000000000000000000000000000000000000000000000000000005f52601260045260245ffdfea26469706673582212202325c8c7922cfd107e9f0b31463f8fb3975438511852771a4b10ed5907304ca564736f6c63430008210033","linkReferences":{}},"methodIdentifiers":{"approve(address,uint256)":"095ea7b3","approvedSeller(address)":"8d222f36","approvedSellers(address)":"931e52ee","balanceOf(address)":"70a08231","deactivateProduct(uint256)":"fd77e5de","getActiveProducts()":"ca0f46c0","getAllProducts()":"02ee3a52","getApproved(uint256)":"081812fc","getProduct(uint256)":"b9db15b4","getProductsByCategory(string)":"8f38cc7b","isApprovedForAll(address,address)":"e985e9c5","marketplaceAddress()":"daa17f49","mintProduct(string,string,string)":"f44f66b4","name()":"06fdde03","owner()":"8da5cb5b","ownerOf(uint256)":"6352211e","products(uint256)":"7acc0b20","reactivateProduct(uint256)":"6e0e5332","renounceOwnership()":"715018a6","revokeSeller(address)":"96a913bf","safeTransferFrom(address,address,uint256)":"42842e0e","safeTransferFrom(address,address,uint256,bytes)":"b88d4fde","setApprovalForAll(address,bool)":"a22cb465","setMarketplaceAddress(address)":"b47cc556","supportsInterface(bytes4)":"01ffc9a7","symbol()":"95d89b41","tokenURI(uint256)":"c87b56dd","totalProducts()":"9b9d326d","transferFrom(address,address,uint256)":"23b872dd","transferOwnership(address)":"f2fde38b"},"id":22}