{"abi":[{"type":"constructor","inputs":[{"name":"_productNFT","type":"address","internalType":"address"}],"stateMutability":"nonpayable"},{"type":"function","name":"compareListings","inputs":[{"name":"tokenId","type":"uint256","internalType":"uint256"}],"outputs":[{"name":"activeListings","type":"tuple[]","internalType":"struct Marketplace.Listing[]","components":[{"name":"listingId","type":"uint256","internalType":"uint256"},{"name":"tokenId","type":"uint256","internalType":"uint256"},{"name":"seller","type":"address","internalType":"address payable"},{"name":"price","type":"uint256","internalType":"uint256"},{"name":"quantity","type":"uint256","internalType":"uint256"},{"name":"active","type":"bool","internalType":"bool"}]}],"stateMutability":"view"},{"type":"function","name":"deactivateListing","inputs":[{"name":"listingId","type":"uint256","internalType":"uint256"}],"outputs":[],"stateMutability":"nonpayable"},{"type":"function","name":"disputeOrder","inputs":[{"name":"orderId","type":"uint256","internalType":"uint256"}],"outputs":[],"stateMutability":"nonpayable"},{"type":"function","name":"getAllActiveListings","inputs":[],"outputs":[{"name":"","type":"tuple[]","internalType":"struct Marketplace.Listing[]","components":[{"name":"listingId","type":"uint256","internalType":"uint256"},{"name":"tokenId","type":"uint256","internalType":"uint256"},{"name":"seller","type":"address","internalType":"address payable"},{"name":"price","type":"uint256","internalType":"uint256"},{"name":"quantity","type":"uint256","internalType":"uint256"},{"name":"active","type":"bool","internalType":"bool"}]}],"stateMutability":"view"},{"type":"function","name":"getBuyerOrders","inputs":[{"name":"buyer","type":"address","internalType":"address"}],"outputs":[{"name":"","type":"tuple[]","internalType":"struct Marketplace.Order[]","components":[{"name":"orderId","type":"uint256","internalType":"uint256"},{"name":"listingId","type":"uint256","internalType":"uint256"},{"name":"tokenId","type":"uint256","internalType":"uint256"},{"name":"buyer","type":"address","internalType":"address"},{"name":"seller","type":"address","internalType":"address"},{"name":"price","type":"uint256","internalType":"uint256"},{"name":"quantity","type":"uint256","internalType":"uint256"},{"name":"timestamp","type":"uint256","internalType":"uint256"},{"name":"receiptHash","type":"bytes32","internalType":"bytes32"},{"name":"receiptURI","type":"string","internalType":"string"},{"name":"status","type":"uint8","internalType":"enum Marketplace.OrderStatus"}]}],"stateMutability":"view"},{"type":"function","name":"getReceiptURI","inputs":[{"name":"orderId","type":"uint256","internalType":"uint256"}],"outputs":[{"name":"","type":"string","internalType":"string"}],"stateMutability":"view"},{"type":"function","name":"getSellerListings","inputs":[{"name":"seller","type":"address","internalType":"address"}],"outputs":[{"name":"","type":"tuple[]","internalType":"struct Marketplace.Listing[]","components":[{"name":"listingId","type":"uint256","internalType":"uint256"},{"name":"tokenId","type":"uint256","internalType":"uint256"},{"name":"seller","type":"address","internalType":"address payable"},{"name":"price","type":"uint256","internalType":"uint256"},{"name":"quantity","type":"uint256","internalType":"uint256"},{"name":"active","type":"bool","internalType":"bool"}]}],"stateMutability":"view"},{"type":"function","name":"listProduct","inputs":[{"name":"tokenId","type":"uint256","internalType":"uint256"},{"name":"price","type":"uint256","internalType":"uint256"},{"name":"quantity","type":"uint256","internalType":"uint256"}],"outputs":[{"name":"","type":"uint256","internalType":"uint256"}],"stateMutability":"nonpayable"},{"type":"function","name":"listings","inputs":[{"name":"","type":"uint256","internalType":"uint256"}],"outputs":[{"name":"listingId","type":"uint256","internalType":"uint256"},{"name":"tokenId","type":"uint256","internalType":"uint256"},{"name":"seller","type":"address","internalType":"address payable"},{"name":"price","type":"uint256","internalType":"uint256"},{"name":"quantity","type":"uint256","internalType":"uint256"},{"name":"active","type":"bool","internalType":"bool"}],"stateMutability":"view"},{"type":"function","name":"orders","inputs":[{"name":"","type":"uint256","internalType":"uint256"}],"outputs":[{"name":"orderId","type":"uint256","internalType":"uint256"},{"name":"listingId","type":"uint256","internalType":"uint256"},{"name":"tokenId","type":"uint256","internalType":"uint256"},{"name":"buyer","type":"address","internalType":"address"},{"name":"seller","type":"address","internalType":"address"},{"name":"price","type":"uint256","internalType":"uint256"},{"name":"quantity","type":"uint256","internalType":"uint256"},{"name":"timestamp","type":"uint256","internalType":"uint256"},{"name":"receiptHash","type":"bytes32","internalType":"bytes32"},{"name":"receiptURI","type":"string","internalType":"string"},{"name":"status","type":"uint8","internalType":"enum Marketplace.OrderStatus"}],"stateMutability":"view"},{"type":"function","name":"owner","inputs":[],"outputs":[{"name":"","type":"address","internalType":"address"}],"stateMutability":"view"},{"type":"function","name":"paused","inputs":[],"outputs":[{"name":"","type":"bool","internalType":"bool"}],"stateMutability":"view"},{"type":"function","name":"placeOrder","inputs":[{"name":"listingId","type":"uint256","internalType":"uint256"},{"name":"quantity","type":"uint256","internalType":"uint256"},{"name":"receiptHash","type":"bytes32","internalType":"bytes32"},{"name":"receiptURI","type":"string","internalType":"string"}],"outputs":[],"stateMutability":"payable"},{"type":"function","name":"platformFee","inputs":[],"outputs":[{"name":"","type":"uint256","internalType":"uint256"}],"stateMutability":"view"},{"type":"function","name":"productNFT","inputs":[],"outputs":[{"name":"","type":"address","internalType":"contract ProductNFT"}],"stateMutability":"view"},{"type":"function","name":"receiptHashToOrder","inputs":[{"name":"","type":"bytes32","internalType":"bytes32"}],"outputs":[{"name":"","type":"uint256","internalType":"uint256"}],"stateMutability":"view"},{"type":"function","name":"refundOrder","inputs":[{"name":"orderId","type":"uint256","internalType":"uint256"}],"outputs":[],"stateMutability":"nonpayable"},{"type":"function","name":"renounceOwnership","inputs":[],"outputs":[],"stateMutability":"nonpayable"},{"type":"function","name":"setPaused","inputs":[{"name":"_paused","type":"bool","internalType":"bool"}],"outputs":[],"stateMutability":"nonpayable"},{"type":"function","name":"setPlatformFee","inputs":[{"name":"newFee","type":"uint256","internalType":"uint256"}],"outputs":[],"stateMutability":"nonpayable"},{"type":"function","name":"totalListings","inputs":[],"outputs":[{"name":"","type":"uint256","internalType":"uint256"}],"stateMutability":"view"},{"type":"function","name":"totalOrders","inputs":[],"outputs":[{"name":"","type":"uint256","internalType":"uint256"}],"stateMutability":"view"},{"type":"function","name":"transferOwnership","inputs":[{"name":"newOwner","type":"address","internalType":"address"}],"outputs":[],"stateMutability":"nonpayable"},{"type":"function","name":"updateListing","inputs":[{"name":"listingId","type":"uint256","internalType":"uint256"},{"name":"newPrice","type":"uint256","internalType":"uint256"},{"name":"newQuantity","type":"uint256","internalType":"uint256"}],"outputs":[],"stateMutability":"nonpayable"},{"type":"function","name":"verifyReceipt","inputs":[{"name":"receiptHash","type":"bytes32","internalType":"bytes32"}],"outputs":[{"name":"valid","type":"bool","internalType":"bool"},{"name":"orderId","type":"uint256","internalType":"uint256"}],"stateMutability":"view"},{"type":"function","name":"withdrawFees","inputs":[],"outputs":[],"stateMutability":"nonpayable"},{"type":"event","name":"FeesWithdrawn","inputs":[{"name":"owner","type":"address","indexed":false,"internalType":"address"},{"name":"amount","type":"uint256","indexed":false,"internalType":"uint256"}],"anonymous":false},{"type":"event","name":"ListingDeactivated","inputs":[{"name":"listingId","type":"uint256","indexed":true,"internalType":"uint256"}],"anonymous":false},{"type":"event","name":"ListingUpdated","inputs":[{"name":"listingId","type":"uint256","indexed":true,"internalType":"uint256"},{"name":"newPrice","type":"uint256","indexed":false,"internalType":"uint256"},{"name":"newQuantity","type":"uint256","indexed":false,"internalType":"uint256"}],"anonymous":false},{"type":"event","name":"OrderDisputed","inputs":[{"name":"orderId","type":"uint256","indexed":true,"internalType":"uint256"},{"name":"buyer","type":"address","indexed":false,"internalType":"address"}],"anonymous":false},{"type":"event","name":"OrderPlaced","inputs":[{"name":"orderId","type":"uint256","indexed":true,"internalType":"uint256"},{"name":"listingId","type":"uint256","indexed":true,"internalType":"uint256"},{"name":"tokenId","type":"uint256","indexed":true,"internalType":"uint256"},{"name":"buyer","type":"address","indexed":false,"internalType":"address"},{"name":"seller","type":"address","indexed":false,"internalType":"address"},{"name":"price","type":"uint256","indexed":false,"internalType":"uint256"},{"name":"quantity","type":"uint256","indexed":false,"internalType":"uint256"},{"name":"receiptHash","type":"bytes32","indexed":false,"internalType":"bytes32"},{"name":"receiptURI","type":"string","indexed":false,"internalType":"string"}],"anonymous":false},{"type":"event","name":"OrderRefunded","inputs":[{"name":"orderId","type":"uint256","indexed":true,"internalType":"uint256"},{"name":"buyer","type":"address","indexed":false,"internalType":"address"},{"name":"amount","type":"uint256","indexed":false,"internalType":"uint256"}],"anonymous":false},{"type":"event","name":"OwnershipTransferred","inputs":[{"name":"previousOwner","type":"address","indexed":true,"internalType":"address"},{"name":"newOwner","type":"address","indexed":true,"internalType":"address"}],"anonymous":false},{"type":"event","name":"Paused","inputs":[{"name":"isPaused","type":"bool","indexed":false,"internalType":"bool"}],"anonymous":false},{"type":"event","name":"PlatformFeeUpdated","inputs":[{"name":"newFee","type":"uint256","indexed":false,"internalType":"uint256"}],"anonymous":false},{"type":"event","name":"ProductListed","inputs":[{"name":"listingId","type":"uint256","indexed":true,"internalType":"uint256"},{"name":"tokenId","type":"uint256","indexed":true,"internalType":"uint256"},{"name":"seller","type":"address","indexed":true,"internalType":"address"},{"name":"price","type":"uint256","indexed":false,"internalType":"uint256"},{"name":"quantity","type":"uint256","indexed":false,"internalType":"uint256"}],"anonymous":false},{"type":"error","name":"OwnableInvalidOwner","inputs":[{"name":"owner","type":"address","internalType":"address"}]},{"type":"error","name":"OwnableUnauthorizedAccount","inputs":[{"name":"account","type":"address","internalType":"address"}]},{"type":"error","name":"ReentrancyGuardReentrantCall","inputs":[]}],"bytecode":{"object":"0x608060405266038d7ea4c6800060025534801561001a575f5ffd5b50604051614998380380614998833981810160405281019061003c91906102e6565b33600161005b61005061019560201b60201c565b6101be60201b60201c565b5f01819055505f73ffffffffffffffffffffffffffffffffffffffff168173ffffffffffffffffffffffffffffffffffffffff16036100d1575f6040517f1e4fbdf70000000000000000000000000000000000000000000000000000000081526004016100c89190610320565b60405180910390fd5b6100e0816101c760201b60201c565b505f73ffffffffffffffffffffffffffffffffffffffff168173ffffffffffffffffffffffffffffffffffffffff160361014f576040517f08c379a000000000000000000000000000000000000000000000000000000000815260040161014690610393565b60405180910390fd5b8060015f6101000a81548173ffffffffffffffffffffffffffffffffffffffff021916908373ffffffffffffffffffffffffffffffffffffffff160217905550506103b1565b5f7f9b779b17422d0df92223018b32b4d1fa46e071723d6817e2486d003becc55f005f1b905090565b5f819050919050565b5f5f5f9054906101000a900473ffffffffffffffffffffffffffffffffffffffff169050815f5f6101000a81548173ffffffffffffffffffffffffffffffffffffffff021916908373ffffffffffffffffffffffffffffffffffffffff1602179055508173ffffffffffffffffffffffffffffffffffffffff168173ffffffffffffffffffffffffffffffffffffffff167f8be0079c531659141344cd1fd0a4f28419497f9722a3daafe3b4186f6b6457e060405160405180910390a35050565b5f5ffd5b5f73ffffffffffffffffffffffffffffffffffffffff82169050919050565b5f6102b58261028c565b9050919050565b6102c5816102ab565b81146102cf575f5ffd5b50565b5f815190506102e0816102bc565b92915050565b5f602082840312156102fb576102fa610288565b5b5f610308848285016102d2565b91505092915050565b61031a816102ab565b82525050565b5f6020820190506103335f830184610311565b92915050565b5f82825260208201905092915050565b7f4d61726b6574706c6163653a207a65726f2061646472657373000000000000005f82015250565b5f61037d601983610339565b915061038882610349565b602082019050919050565b5f6020820190508181035f8301526103aa81610371565b9050919050565b6145da806103be5f395ff3fe608060405260043610610180575f3560e01c80638c570aaf116100d0578063a85c38ef11610089578063c78b616c11610063578063c78b616c1461057b578063de74e57b146105a5578063f2fde38b146105e6578063f6cf2a161461060e57610180565b8063a85c38ef146104d1578063bda788ab14610517578063c018c4571461055357610180565b80638c570aaf146103c15780638da5cb5b146103fd5780638fcdeba1146104275780639a75b16314610451578063a09970b21461046d578063a45f2ebc1461049557610180565b8063476343ee1161013d578063701e508411610117578063701e508414610308578063715018a6146103325780638162447c146103485780638174794e1461038457610180565b8063476343ee1461028c5780635c975abb146102a25780635f42da09146102cc57610180565b8063125bc6031461018457806312e8e2c3146101c057806316c38b3c146101e85780631d8344091461021057806326232a2e1461023a5780633b8d915f14610264575b5f5ffd5b34801561018f575f5ffd5b506101aa60048036038101906101a59190612b69565b610636565b6040516101b79190612c04565b60405180910390f35b3480156101cb575f5ffd5b506101e660048036038101906101e19190612b69565b61072f565b005b3480156101f3575f5ffd5b5061020e60048036038101906102099190612c59565b610778565b005b34801561021b575f5ffd5b506102246107d3565b6040516102319190612c93565b60405180910390f35b348015610245575f5ffd5b5061024e6107dc565b60405161025b9190612c93565b60405180910390f35b34801561026f575f5ffd5b5061028a60048036038101906102859190612b69565b6107e2565b005b348015610297575f5ffd5b506102a0610910565b005b3480156102ad575f5ffd5b506102b6610a51565b6040516102c39190612cbb565b60405180910390f35b3480156102d7575f5ffd5b506102f260048036038101906102ed9190612d2e565b610a63565b6040516102ff9190612eb8565b60405180910390f35b348015610313575f5ffd5b5061031c610c11565b6040516103299190612eb8565b60405180910390f35b34801561033d575f5ffd5b50610346610df8565b005b348015610353575f5ffd5b5061036e60048036038101906103699190612ed8565b610e0b565b60405161037b9190612c93565b60405180910390f35b34801561038f575f5ffd5b506103aa60048036038101906103a59190612f5b565b6112cf565b6040516103b8929190612f86565b60405180910390f35b3480156103cc575f5ffd5b506103e760048036038101906103e29190612f5b565b61133f565b6040516103f49190612c93565b60405180910390f35b348015610408575f5ffd5b50610411611354565b60405161041e9190612fbc565b60405180910390f35b348015610432575f5ffd5b5061043b61137b565b6040516104489190613030565b60405180910390f35b61046b600480360381019061046691906130aa565b6113a0565b005b348015610478575f5ffd5b50610493600480360381019061048e9190612b69565b611a29565b005b3480156104a0575f5ffd5b506104bb60048036038101906104b69190612d2e565b611b8b565b6040516104c891906133ae565b60405180910390f35b3480156104dc575f5ffd5b506104f760048036038101906104f29190612b69565b611e5d565b60405161050e9b9a999897969594939291906133ec565b60405180910390f35b348015610522575f5ffd5b5061053d60048036038101906105389190612b69565b611f83565b60405161054a9190612eb8565b60405180910390f35b34801561055e575f5ffd5b5061057960048036038101906105749190612b69565b6122e3565b005b348015610586575f5ffd5b5061058f61252b565b60405161059c9190612c93565b60405180910390f35b3480156105b0575f5ffd5b506105cb60048036038101906105c69190612b69565b612534565b6040516105dd969594939291906134ab565b60405180910390f35b3480156105f1575f5ffd5b5061060c60048036038101906106079190612d2e565b612597565b005b348015610619575f5ffd5b50610634600480360381019061062f9190612ed8565b61261b565b005b60608160075f8481526020019081526020015f205f01541461068d576040517f08c379a000000000000000000000000000000000000000000000000000000000815260040161068490613554565b60405180910390fd5b60075f8381526020019081526020015f2060090180546106ac9061359f565b80601f01602080910402602001604051908101604052809291908181526020018280546106d89061359f565b80156107235780601f106106fa57610100808354040283529160200191610723565b820191905f5260205f20905b81548152906001019060200180831161070657829003601f168201915b50505050509050919050565b610737612835565b806002819055507f45610d581145924dd7090a5017e5f2b1d6f42213bb2e95707ff86846bbfcb1ca8160405161076d9190612c93565b60405180910390a150565b610780612835565b8060035f6101000a81548160ff0219169083151502179055507f0e2fb031ee032dc02d8011dc50b816eb450cf856abd8261680dac74f72165bd2816040516107c89190612cbb565b60405180910390a150565b5f600554905090565b60025481565b5f60065f8381526020019081526020015f2090503373ffffffffffffffffffffffffffffffffffffffff16816002015f9054906101000a900473ffffffffffffffffffffffffffffffffffffffff1673ffffffffffffffffffffffffffffffffffffffff1614806108855750610856611354565b73ffffffffffffffffffffffffffffffffffffffff163373ffffffffffffffffffffffffffffffffffffffff16145b6108c4576040517f08c379a00000000000000000000000000000000000000000000000000000000081526004016108bb90613619565b60405180910390fd5b5f816005015f6101000a81548160ff021916908315150217905550817fe8a884965a7fb1b7c1efd55ff478bcbd880c4b226a2e2218b83d31c493964ab360405160405180910390a25050565b610918612835565b5f4790505f811161095e576040517f08c379a000000000000000000000000000000000000000000000000000000000815260040161095590613681565b60405180910390fd5b5f610967611354565b73ffffffffffffffffffffffffffffffffffffffff168260405161098a906136cc565b5f6040518083038185875af1925050503d805f81146109c4576040519150601f19603f3d011682016040523d82523d5f602084013e6109c9565b606091505b5050905080610a0d576040517f08c379a0000000000000000000000000000000000000000000000000000000008152600401610a049061372a565b60405180910390fd5b7fc0819c13be868895eb93e40eaceb96de976442fa1d404e5c55f14bb65a8c489a610a36611354565b83604051610a45929190613748565b60405180910390a15050565b60035f9054906101000a900460ff1681565b60605f600a5f8473ffffffffffffffffffffffffffffffffffffffff1673ffffffffffffffffffffffffffffffffffffffff1681526020019081526020015f2090505f818054905067ffffffffffffffff811115610ac457610ac361376f565b5b604051908082528060200260200182016040528015610afd57816020015b610aea612a4f565b815260200190600190039081610ae25790505b5090505f5b8280549050811015610c065760065f848381548110610b2457610b2361379c565b5b905f5260205f20015481526020019081526020015f206040518060c00160405290815f820154815260200160018201548152602001600282015f9054906101000a900473ffffffffffffffffffffffffffffffffffffffff1673ffffffffffffffffffffffffffffffffffffffff1673ffffffffffffffffffffffffffffffffffffffff1681526020016003820154815260200160048201548152602001600582015f9054906101000a900460ff161515151581525050828281518110610bee57610bed61379c565b5b60200260200101819052508080600101915050610b02565b508092505050919050565b60605f60045490505f5f600190505b828111610c6f5760065f8281526020019081526020015f206005015f9054906101000a900460ff1615610c5c578180610c58906137f6565b9250505b8080610c67906137f6565b915050610c20565b505f8167ffffffffffffffff811115610c8b57610c8a61376f565b5b604051908082528060200260200182016040528015610cc457816020015b610cb1612a4f565b815260200190600190039081610ca95790505b5090505f5f600190505b848111610ded5760065f8281526020019081526020015f206005015f9054906101000a900460ff1615610dda5760065f8281526020019081526020015f206040518060c00160405290815f820154815260200160018201548152602001600282015f9054906101000a900473ffffffffffffffffffffffffffffffffffffffff1673ffffffffffffffffffffffffffffffffffffffff1673ffffffffffffffffffffffffffffffffffffffff1681526020016003820154815260200160048201548152602001600582015f9054906101000a900460ff161515151581525050838381518110610dc057610dbf61379c565b5b60200260200101819052508180610dd6906137f6565b9250505b8080610de5906137f6565b915050610cce565b508194505050505090565b610e00612835565b610e095f6128bc565b565b5f610e14611354565b73ffffffffffffffffffffffffffffffffffffffff163373ffffffffffffffffffffffffffffffffffffffff161480610ee2575060015f9054906101000a900473ffffffffffffffffffffffffffffffffffffffff1673ffffffffffffffffffffffffffffffffffffffff1663931e52ee336040518263ffffffff1660e01b8152600401610ea29190612fbc565b602060405180830381865afa158015610ebd573d5f5f3e3d5ffd5b505050506040513d601f19601f82011682018060405250810190610ee19190613851565b5b610f21576040517f08c379a0000000000000000000000000000000000000000000000000000000008152600401610f18906138ec565b60405180910390fd5b60035f9054906101000a900460ff1615610f70576040517f08c379a0000000000000000000000000000000000000000000000000000000008152600401610f6790613954565b60405180910390fd5b5f8311610fb2576040517f08c379a0000000000000000000000000000000000000000000000000000000008152600401610fa9906139bc565b60405180910390fd5b5f8211610ff4576040517f08c379a0000000000000000000000000000000000000000000000000000000008152600401610feb90613a4a565b60405180910390fd5b5f60015f9054906101000a900473ffffffffffffffffffffffffffffffffffffffff1673ffffffffffffffffffffffffffffffffffffffff1663b9db15b4866040518263ffffffff1660e01b815260040161104f9190612c93565b5f60405180830381865afa158015611069573d5f5f3e3d5ffd5b505050506040513d5f823e3d601f19601f820116820180604052508101906110919190613c46565b905080608001516110d7576040517f08c379a00000000000000000000000000000000000000000000000000000000081526004016110ce90613cfd565b60405180910390fd5b600160045f8282546110e99190613d1b565b925050819055505f60045490506040518060c001604052808281526020018781526020013373ffffffffffffffffffffffffffffffffffffffff1681526020018681526020018581526020016001151581525060065f8381526020019081526020015f205f820151815f0155602082015181600101556040820151816002015f6101000a81548173ffffffffffffffffffffffffffffffffffffffff021916908373ffffffffffffffffffffffffffffffffffffffff160217905550606082015181600301556080820151816004015560a0820151816005015f6101000a81548160ff02191690831515021790555090505060085f8781526020019081526020015f2081908060018154018082558091505060019003905f5260205f20015f9091909190915055600a5f3373ffffffffffffffffffffffffffffffffffffffff1673ffffffffffffffffffffffffffffffffffffffff1681526020019081526020015f2081908060018154018082558091505060019003905f5260205f20015f90919091909150553373ffffffffffffffffffffffffffffffffffffffff1686827f311f1967bae876e3c4f7eed4cdaeaa4c166d015ff44bb9328d33dad8b62524b288886040516112bb929190613d4e565b60405180910390a480925050509392505050565b5f5f600b5f8481526020019081526020015f205490505f811415801561133857505f6002811115611303576113026131bd565b5b60075f8381526020019081526020015f20600a015f9054906101000a900460ff166002811115611336576113356131bd565b5b145b9150915091565b600b602052805f5260405f205f915090505481565b5f5f5f9054906101000a900473ffffffffffffffffffffffffffffffffffffffff16905090565b60015f9054906101000a900473ffffffffffffffffffffffffffffffffffffffff1681565b6113a861297d565b60035f9054906101000a900460ff16156113f7576040517f08c379a00000000000000000000000000000000000000000000000000000000081526004016113ee90613954565b60405180910390fd5b5f60065f8781526020019081526020015f209050806005015f9054906101000a900460ff1661145b576040517f08c379a000000000000000000000000000000000000000000000000000000000815260040161145290613dbf565b60405180910390fd5b5f851161149d576040517f08c379a000000000000000000000000000000000000000000000000000000000815260040161149490613a4a565b60405180910390fd5b80600401548511156114e4576040517f08c379a00000000000000000000000000000000000000000000000000000000081526004016114db90613e27565b60405180910390fd5b806002015f9054906101000a900473ffffffffffffffffffffffffffffffffffffffff1673ffffffffffffffffffffffffffffffffffffffff163373ffffffffffffffffffffffffffffffffffffffff1603611575576040517f08c379a000000000000000000000000000000000000000000000000000000000815260040161156c90613eb5565b60405180910390fd5b5f5f1b84036115b9576040517f08c379a00000000000000000000000000000000000000000000000000000000081526004016115b090613f1d565b60405180910390fd5b5f83839050116115fe576040517f08c379a00000000000000000000000000000000000000000000000000000000081526004016115f590613f85565b60405180910390fd5b5f600b5f8681526020019081526020015f205414611651576040517f08c379a000000000000000000000000000000000000000000000000000000000815260040161164890614013565b60405180910390fd5b5f8582600301546116629190614031565b9050600254816116729190613d1b565b34146116b3576040517f08c379a00000000000000000000000000000000000000000000000000000000081526004016116aa906140e2565b60405180910390fd5b85826004015f8282546116c69190614100565b925050819055505f8260040154036116f4575f826005015f6101000a81548160ff0219169083151502179055505b600160055f8282546117069190613d1b565b925050819055505f6005549050604051806101600160405280828152602001898152602001846001015481526020013373ffffffffffffffffffffffffffffffffffffffff168152602001846002015f9054906101000a900473ffffffffffffffffffffffffffffffffffffffff1673ffffffffffffffffffffffffffffffffffffffff16815260200183815260200188815260200142815260200187815260200186868080601f0160208091040260200160405190810160405280939291908181526020018383808284375f81840152601f19601f8201169050808301925050505050505081526020015f6002811115611804576118036131bd565b5b81525060075f8381526020019081526020015f205f820151815f015560208201518160010155604082015181600201556060820151816003015f6101000a81548173ffffffffffffffffffffffffffffffffffffffff021916908373ffffffffffffffffffffffffffffffffffffffff1602179055506080820151816004015f6101000a81548173ffffffffffffffffffffffffffffffffffffffff021916908373ffffffffffffffffffffffffffffffffffffffff16021790555060a0820151816005015560c0820151816006015560e0820151816007015561010082015181600801556101208201518160090190816118ff91906142db565b5061014082015181600a015f6101000a81548160ff0219169083600281111561192b5761192a6131bd565b5b021790555090505060095f3373ffffffffffffffffffffffffffffffffffffffff1673ffffffffffffffffffffffffffffffffffffffff1681526020019081526020015f2081908060018154018082558091505060019003905f5260205f20015f909190919091505580600b5f8881526020019081526020015f2081905550826001015488827f1d646d1c4cbab18d8908245eb90b39457ac8e612af66320307bea3f47190f13133876002015f9054906101000a900473ffffffffffffffffffffffffffffffffffffffff16878d8d8d8d604051611a0f9796959493929190614404565b60405180910390a4505050611a2261299f565b5050505050565b611a31612835565b5f60075f8381526020019081526020015f20905081815f015414611a8a576040517f08c379a0000000000000000000000000000000000000000000000000000000008152600401611a8190613554565b60405180910390fd5b5f6002811115611a9d57611a9c6131bd565b5b81600a015f9054906101000a900460ff166002811115611ac057611abf6131bd565b5b14611b00576040517f08c379a0000000000000000000000000000000000000000000000000000000008152600401611af7906144b6565b60405180910390fd5b600281600a015f6101000a81548160ff02191690836002811115611b2757611b266131bd565b5b0217905550817fde481be1936299e9233634e9f3cd92028f797634de15defa790fb2d7a013c95a826003015f9054906101000a900473ffffffffffffffffffffffffffffffffffffffff16604051611b7f9190612fbc565b60405180910390a25050565b60605f60095f8473ffffffffffffffffffffffffffffffffffffffff1673ffffffffffffffffffffffffffffffffffffffff1681526020019081526020015f2090505f818054905067ffffffffffffffff811115611bec57611beb61376f565b5b604051908082528060200260200182016040528015611c2557816020015b611c12612a97565b815260200190600190039081611c0a5790505b5090505f5b8280549050811015611e525760075f848381548110611c4c57611c4b61379c565b5b905f5260205f20015481526020019081526020015f20604051806101600160405290815f82015481526020016001820154815260200160028201548152602001600382015f9054906101000a900473ffffffffffffffffffffffffffffffffffffffff1673ffffffffffffffffffffffffffffffffffffffff1673ffffffffffffffffffffffffffffffffffffffff168152602001600482015f9054906101000a900473ffffffffffffffffffffffffffffffffffffffff1673ffffffffffffffffffffffffffffffffffffffff1673ffffffffffffffffffffffffffffffffffffffff16815260200160058201548152602001600682015481526020016007820154815260200160088201548152602001600982018054611d6d9061359f565b80601f0160208091040260200160405190810160405280929190818152602001828054611d999061359f565b8015611de45780601f10611dbb57610100808354040283529160200191611de4565b820191905f5260205f20905b815481529060010190602001808311611dc757829003601f168201915b50505050508152602001600a82015f9054906101000a900460ff166002811115611e1157611e106131bd565b5b6002811115611e2357611e226131bd565b5b81525050828281518110611e3a57611e3961379c565b5b60200260200101819052508080600101915050611c2a565b508092505050919050565b6007602052805f5260405f205f91509050805f015490806001015490806002015490806003015f9054906101000a900473ffffffffffffffffffffffffffffffffffffffff1690806004015f9054906101000a900473ffffffffffffffffffffffffffffffffffffffff1690806005015490806006015490806007015490806008015490806009018054611ef09061359f565b80601f0160208091040260200160405190810160405280929190818152602001828054611f1c9061359f565b8015611f675780601f10611f3e57610100808354040283529160200191611f67565b820191905f5260205f20905b815481529060010190602001808311611f4a57829003601f168201915b50505050509080600a015f9054906101000a900460ff1690508b565b60605f60085f8481526020019081526020015f2090505f5f5b82805490508110156120055760065f848381548110611fbe57611fbd61379c565b5b905f5260205f20015481526020019081526020015f206005015f9054906101000a900460ff1615611ff8578180611ff4906137f6565b9250505b8080600101915050611f9c565b508067ffffffffffffffff8111156120205761201f61376f565b5b60405190808252806020026020018201604052801561205957816020015b612046612a4f565b81526020019060019003908161203e5790505b5092505f5f5b83805490508110156121b35760065f8583815481106120815761208061379c565b5b905f5260205f20015481526020019081526020015f206005015f9054906101000a900460ff16156121a65760065f8583815481106120c2576120c161379c565b5b905f5260205f20015481526020019081526020015f206040518060c00160405290815f820154815260200160018201548152602001600282015f9054906101000a900473ffffffffffffffffffffffffffffffffffffffff1673ffffffffffffffffffffffffffffffffffffffff1673ffffffffffffffffffffffffffffffffffffffff1681526020016003820154815260200160048201548152602001600582015f9054906101000a900460ff16151515158152505085838151811061218c5761218b61379c565b5b602002602001018190525081806121a2906137f6565b9250505b808060010191505061205f565b505f5b828110156122da575f5b816001856121ce9190614100565b6121d89190614100565b8110156122cc57856001826121ed9190613d1b565b815181106121fe576121fd61379c565b5b60200260200101516060015186828151811061221d5761221c61379c565b5b60200260200101516060015111156122bf575f8682815181106122435761224261379c565b5b602002602001015190508660018361225b9190613d1b565b8151811061226c5761226b61379c565b5b60200260200101518783815181106122875761228661379c565b5b602002602001018190525080876001846122a19190613d1b565b815181106122b2576122b161379c565b5b6020026020010181905250505b80806001019150506121c0565b5080806001019150506121b6565b50505050919050565b6122eb612835565b6122f361297d565b5f60075f8381526020019081526020015f20905081815f01541461234c576040517f08c379a000000000000000000000000000000000000000000000000000000000815260040161234390613554565b60405180910390fd5b5f600281111561235f5761235e6131bd565b5b81600a015f9054906101000a900460ff166002811115612382576123816131bd565b5b146123c2576040517f08c379a00000000000000000000000000000000000000000000000000000000081526004016123b99061451e565b60405180910390fd5b600181600a015f6101000a81548160ff021916908360028111156123e9576123e86131bd565b5b02179055505f816003015f9054906101000a900473ffffffffffffffffffffffffffffffffffffffff1673ffffffffffffffffffffffffffffffffffffffff16826005015460405161243a906136cc565b5f6040518083038185875af1925050503d805f8114612474576040519150601f19603f3d011682016040523d82523d5f602084013e612479565b606091505b50509050806124bd576040517f08c379a00000000000000000000000000000000000000000000000000000000081526004016124b49061372a565b60405180910390fd5b827fe18debf292fbfc1f009a15d4e4932c1da2be34d7343f86f50989d09a04571e1b836003015f9054906101000a900473ffffffffffffffffffffffffffffffffffffffff168460050154604051612516929190613748565b60405180910390a2505061252861299f565b50565b5f600454905090565b6006602052805f5260405f205f91509050805f015490806001015490806002015f9054906101000a900473ffffffffffffffffffffffffffffffffffffffff1690806003015490806004015490806005015f9054906101000a900460ff16905086565b61259f612835565b5f73ffffffffffffffffffffffffffffffffffffffff168173ffffffffffffffffffffffffffffffffffffffff160361260f575f6040517f1e4fbdf70000000000000000000000000000000000000000000000000000000081526004016126069190612fbc565b60405180910390fd5b612618816128bc565b50565b60035f9054906101000a900460ff161561266a576040517f08c379a000000000000000000000000000000000000000000000000000000000815260040161266190613954565b60405180910390fd5b5f60065f8581526020019081526020015f2090503373ffffffffffffffffffffffffffffffffffffffff16816002015f9054906101000a900473ffffffffffffffffffffffffffffffffffffffff1673ffffffffffffffffffffffffffffffffffffffff161461270f576040517f08c379a000000000000000000000000000000000000000000000000000000000815260040161270690614586565b60405180910390fd5b806005015f9054906101000a900460ff1661275f576040517f08c379a000000000000000000000000000000000000000000000000000000000815260040161275690613dbf565b60405180910390fd5b5f83116127a1576040517f08c379a0000000000000000000000000000000000000000000000000000000008152600401612798906139bc565b60405180910390fd5b5f82116127e3576040517f08c379a00000000000000000000000000000000000000000000000000000000081526004016127da90613a4a565b60405180910390fd5b828160030181905550818160040181905550837ff7adc9a0380a940c6058d78194df6a9b9fa5bb431bbad15194913bb611f3f4f78484604051612827929190613d4e565b60405180910390a250505050565b61283d6129b9565b73ffffffffffffffffffffffffffffffffffffffff1661285b611354565b73ffffffffffffffffffffffffffffffffffffffff16146128ba5761287e6129b9565b6040517f118cdaa70000000000000000000000000000000000000000000000000000000081526004016128b19190612fbc565b60405180910390fd5b565b5f5f5f9054906101000a900473ffffffffffffffffffffffffffffffffffffffff169050815f5f6101000a81548173ffffffffffffffffffffffffffffffffffffffff021916908373ffffffffffffffffffffffffffffffffffffffff1602179055508173ffffffffffffffffffffffffffffffffffffffff168173ffffffffffffffffffffffffffffffffffffffff167f8be0079c531659141344cd1fd0a4f28419497f9722a3daafe3b4186f6b6457e060405160405180910390a35050565b6129856129c0565b6002612997612992612a01565b612a2a565b5f0181905550565b60016129b16129ac612a01565b612a2a565b5f0181905550565b5f33905090565b6129c8612a33565b156129ff576040517f3ee5aeb500000000000000000000000000000000000000000000000000000000815260040160405180910390fd5b565b5f7f9b779b17422d0df92223018b32b4d1fa46e071723d6817e2486d003becc55f005f1b905090565b5f819050919050565b5f6002612a46612a41612a01565b612a2a565b5f015414905090565b6040518060c001604052805f81526020015f81526020015f73ffffffffffffffffffffffffffffffffffffffff1681526020015f81526020015f81526020015f151581525090565b6040518061016001604052805f81526020015f81526020015f81526020015f73ffffffffffffffffffffffffffffffffffffffff1681526020015f73ffffffffffffffffffffffffffffffffffffffff1681526020015f81526020015f81526020015f81526020015f8152602001606081526020015f6002811115612b1f57612b1e6131bd565b5b81525090565b5f604051905090565b5f5ffd5b5f5ffd5b5f819050919050565b612b4881612b36565b8114612b52575f5ffd5b50565b5f81359050612b6381612b3f565b92915050565b5f60208284031215612b7e57612b7d612b2e565b5b5f612b8b84828501612b55565b91505092915050565b5f81519050919050565b5f82825260208201905092915050565b8281835e5f83830152505050565b5f601f19601f8301169050919050565b5f612bd682612b94565b612be08185612b9e565b9350612bf0818560208601612bae565b612bf981612bbc565b840191505092915050565b5f6020820190508181035f830152612c1c8184612bcc565b905092915050565b5f8115159050919050565b612c3881612c24565b8114612c42575f5ffd5b50565b5f81359050612c5381612c2f565b92915050565b5f60208284031215612c6e57612c6d612b2e565b5b5f612c7b84828501612c45565b91505092915050565b612c8d81612b36565b82525050565b5f602082019050612ca65f830184612c84565b92915050565b612cb581612c24565b82525050565b5f602082019050612cce5f830184612cac565b92915050565b5f73ffffffffffffffffffffffffffffffffffffffff82169050919050565b5f612cfd82612cd4565b9050919050565b612d0d81612cf3565b8114612d17575f5ffd5b50565b5f81359050612d2881612d04565b92915050565b5f60208284031215612d4357612d42612b2e565b5b5f612d5084828501612d1a565b91505092915050565b5f81519050919050565b5f82825260208201905092915050565b5f819050602082019050919050565b612d8b81612b36565b82525050565b5f612d9b82612cd4565b9050919050565b612dab81612d91565b82525050565b612dba81612c24565b82525050565b60c082015f820151612dd45f850182612d82565b506020820151612de76020850182612d82565b506040820151612dfa6040850182612da2565b506060820151612e0d6060850182612d82565b506080820151612e206080850182612d82565b5060a0820151612e3360a0850182612db1565b50505050565b5f612e448383612dc0565b60c08301905092915050565b5f602082019050919050565b5f612e6682612d59565b612e708185612d63565b9350612e7b83612d73565b805f5b83811015612eab578151612e928882612e39565b9750612e9d83612e50565b925050600181019050612e7e565b5085935050505092915050565b5f6020820190508181035f830152612ed08184612e5c565b905092915050565b5f5f5f60608486031215612eef57612eee612b2e565b5b5f612efc86828701612b55565b9350506020612f0d86828701612b55565b9250506040612f1e86828701612b55565b9150509250925092565b5f819050919050565b612f3a81612f28565b8114612f44575f5ffd5b50565b5f81359050612f5581612f31565b92915050565b5f60208284031215612f7057612f6f612b2e565b5b5f612f7d84828501612f47565b91505092915050565b5f604082019050612f995f830185612cac565b612fa66020830184612c84565b9392505050565b612fb681612cf3565b82525050565b5f602082019050612fcf5f830184612fad565b92915050565b5f819050919050565b5f612ff8612ff3612fee84612cd4565b612fd5565b612cd4565b9050919050565b5f61300982612fde565b9050919050565b5f61301a82612fff565b9050919050565b61302a81613010565b82525050565b5f6020820190506130435f830184613021565b92915050565b5f5ffd5b5f5ffd5b5f5ffd5b5f5f83601f84011261306a57613069613049565b5b8235905067ffffffffffffffff8111156130875761308661304d565b5b6020830191508360018202830111156130a3576130a2613051565b5b9250929050565b5f5f5f5f5f608086880312156130c3576130c2612b2e565b5b5f6130d088828901612b55565b95505060206130e188828901612b55565b94505060406130f288828901612f47565b935050606086013567ffffffffffffffff81111561311357613112612b32565b5b61311f88828901613055565b92509250509295509295909350565b5f81519050919050565b5f82825260208201905092915050565b5f819050602082019050919050565b61316081612cf3565b82525050565b61316f81612f28565b82525050565b5f82825260208201905092915050565b5f61318f82612b94565b6131998185613175565b93506131a9818560208601612bae565b6131b281612bbc565b840191505092915050565b7f4e487b71000000000000000000000000000000000000000000000000000000005f52602160045260245ffd5b600381106131fb576131fa6131bd565b5b50565b5f81905061320b826131ea565b919050565b5f61321a826131fe565b9050919050565b61322a81613210565b82525050565b5f61016083015f8301516132465f860182612d82565b5060208301516132596020860182612d82565b50604083015161326c6040860182612d82565b50606083015161327f6060860182613157565b5060808301516132926080860182613157565b5060a08301516132a560a0860182612d82565b5060c08301516132b860c0860182612d82565b5060e08301516132cb60e0860182612d82565b506101008301516132e0610100860182613166565b506101208301518482036101208601526132fa8282613185565b915050610140830151613311610140860182613221565b508091505092915050565b5f6133278383613230565b905092915050565b5f602082019050919050565b5f6133458261312e565b61334f8185613138565b93508360208202850161336185613148565b805f5b8581101561339c578484038952815161337d858261331c565b94506133888361332f565b925060208a01995050600181019050613364565b50829750879550505050505092915050565b5f6020820190508181035f8301526133c6818461333b565b905092915050565b6133d781612f28565b82525050565b6133e681613210565b82525050565b5f610160820190506134005f83018e612c84565b61340d602083018d612c84565b61341a604083018c612c84565b613427606083018b612fad565b613434608083018a612fad565b61344160a0830189612c84565b61344e60c0830188612c84565b61345b60e0830187612c84565b6134696101008301866133ce565b81810361012083015261347c8185612bcc565b905061348c6101408301846133dd565b9c9b505050505050505050505050565b6134a581612d91565b82525050565b5f60c0820190506134be5f830189612c84565b6134cb6020830188612c84565b6134d8604083018761349c565b6134e56060830186612c84565b6134f26080830185612c84565b6134ff60a0830184612cac565b979650505050505050565b7f4d61726b6574706c6163653a20756e6b6e6f776e206f726465720000000000005f82015250565b5f61353e601a83612b9e565b91506135498261350a565b602082019050919050565b5f6020820190508181035f83015261356b81613532565b9050919050565b7f4e487b71000000000000000000000000000000000000000000000000000000005f52602260045260245ffd5b5f60028204905060018216806135b657607f821691505b6020821081036135c9576135c8613572565b5b50919050565b7f4d61726b6574706c6163653a206e6f742073656c6c6572206f722061646d696e5f82015250565b5f613603602083612b9e565b915061360e826135cf565b602082019050919050565b5f6020820190508181035f830152613630816135f7565b9050919050565b7f4d61726b6574706c6163653a206e6f7468696e6720746f2077697468647261775f82015250565b5f61366b602083612b9e565b915061367682613637565b602082019050919050565b5f6020820190508181035f8301526136988161365f565b9050919050565b5f81905092915050565b50565b5f6136b75f8361369f565b91506136c2826136a9565b5f82019050919050565b5f6136d6826136ac565b9150819050919050565b7f4d61726b6574706c6163653a20455448207472616e73666572206661696c65645f82015250565b5f613714602083612b9e565b915061371f826136e0565b602082019050919050565b5f6020820190508181035f83015261374181613708565b9050919050565b5f60408201905061375b5f830185612fad565b6137686020830184612c84565b9392505050565b7f4e487b71000000000000000000000000000000000000000000000000000000005f52604160045260245ffd5b7f4e487b71000000000000000000000000000000000000000000000000000000005f52603260045260245ffd5b7f4e487b71000000000000000000000000000000000000000000000000000000005f52601160045260245ffd5b5f61380082612b36565b91507fffffffffffffffffffffffffffffffffffffffffffffffffffffffffffffffff8203613832576138316137c9565b5b600182019050919050565b5f8151905061384b81612c2f565b92915050565b5f6020828403121561386657613865612b2e565b5b5f6138738482850161383d565b91505092915050565b7f4d61726b6574706c6163653a206e6f742061646d696e206f7220617070726f765f8201527f65642073656c6c65720000000000000000000000000000000000000000000000602082015250565b5f6138d6602983612b9e565b91506138e18261387c565b604082019050919050565b5f6020820190508181035f830152613903816138ca565b9050919050565b7f4d61726b6574706c6163653a20706175736564000000000000000000000000005f82015250565b5f61393e601383612b9e565b91506139498261390a565b602082019050919050565b5f6020820190508181035f83015261396b81613932565b9050919050565b7f4d61726b6574706c6163653a207072696365206d757374206265203e203000005f82015250565b5f6139a6601e83612b9e565b91506139b182613972565b602082019050919050565b5f6020820190508181035f8301526139d38161399a565b9050919050565b7f4d61726b6574706c6163653a207175616e74697479206d757374206265203e205f8201527f3000000000000000000000000000000000000000000000000000000000000000602082015250565b5f613a34602183612b9e565b9150613a3f826139da565b604082019050919050565b5f6020820190508181035f830152613a6181613a28565b9050919050565b5f5ffd5b613a7582612bbc565b810181811067ffffffffffffffff82111715613a9457613a9361376f565b5b80604052505050565b5f613aa6612b25565b9050613ab28282613a6c565b919050565b5f5ffd5b5f81519050613ac981612b3f565b92915050565b5f5ffd5b5f67ffffffffffffffff821115613aed57613aec61376f565b5b613af682612bbc565b9050602081019050919050565b5f613b15613b1084613ad3565b613a9d565b905082815260208101848484011115613b3157613b30613acf565b5b613b3c848285612bae565b509392505050565b5f82601f830112613b5857613b57613049565b5b8151613b68848260208601613b03565b91505092915050565b5f81519050613b7f81612d04565b92915050565b5f60a08284031215613b9a57613b99613a68565b5b613ba460a0613a9d565b90505f613bb384828501613abb565b5f83015250602082015167ffffffffffffffff811115613bd657613bd5613ab7565b5b613be284828501613b44565b602083015250604082015167ffffffffffffffff811115613c0657613c05613ab7565b5b613c1284828501613b44565b6040830152506060613c2684828501613b71565b6060830152506080613c3a8482850161383d565b60808301525092915050565b5f60208284031215613c5b57613c5a612b2e565b5b5f82015167ffffffffffffffff811115613c7857613c77612b32565b5b613c8484828501613b85565b91505092915050565b7f4d61726b6574706c6163653a2070726f64756374206973206e6f7420616374695f8201527f7665000000000000000000000000000000000000000000000000000000000000602082015250565b5f613ce7602283612b9e565b9150613cf282613c8d565b604082019050919050565b5f6020820190508181035f830152613d1481613cdb565b9050919050565b5f613d2582612b36565b9150613d3083612b36565b9250828201905080821115613d4857613d476137c9565b5b92915050565b5f604082019050613d615f830185612c84565b613d6e6020830184612c84565b9392505050565b7f4d61726b6574706c6163653a206c697374696e67206e6f7420616374697665005f82015250565b5f613da9601f83612b9e565b9150613db482613d75565b602082019050919050565b5f6020820190508181035f830152613dd681613d9d565b9050919050565b7f4d61726b6574706c6163653a20696e73756666696369656e742073746f636b005f82015250565b5f613e11601f83612b9e565b9150613e1c82613ddd565b602082019050919050565b5f6020820190508181035f830152613e3e81613e05565b9050919050565b7f4d61726b6574706c6163653a2073656c6c65722063616e6e6f742073656c662d5f8201527f6f72646572000000000000000000000000000000000000000000000000000000602082015250565b5f613e9f602583612b9e565b9150613eaa82613e45565b604082019050919050565b5f6020820190508181035f830152613ecc81613e93565b9050919050565b7f4d61726b6574706c6163653a20656d70747920726563656970742068617368005f82015250565b5f613f07601f83612b9e565b9150613f1282613ed3565b602082019050919050565b5f6020820190508181035f830152613f3481613efb565b9050919050565b7f4d61726b6574706c6163653a20656d70747920726563656970742055524900005f82015250565b5f613f6f601e83612b9e565b9150613f7a82613f3b565b602082019050919050565b5f6020820190508181035f830152613f9c81613f63565b9050919050565b7f4d61726b6574706c6163653a206475706c6963617465207265636569707420685f8201527f6173680000000000000000000000000000000000000000000000000000000000602082015250565b5f613ffd602383612b9e565b915061400882613fa3565b604082019050919050565b5f6020820190508181035f83015261402a81613ff1565b9050919050565b5f61403b82612b36565b915061404683612b36565b925082820261405481612b36565b9150828204841483151761406b5761406a6137c9565b5b5092915050565b7f4d61726b6574706c6163653a2077726f6e672045544820287072696365202a205f8201527f717479202b20706c6174666f726d466565290000000000000000000000000000602082015250565b5f6140cc603283612b9e565b91506140d782614072565b604082019050919050565b5f6020820190508181035f8301526140f9816140c0565b9050919050565b5f61410a82612b36565b915061411583612b36565b925082820390508181111561412d5761412c6137c9565b5b92915050565b5f819050815f5260205f209050919050565b5f6020601f8301049050919050565b5f82821b905092915050565b5f6008830261418f7fffffffffffffffffffffffffffffffffffffffffffffffffffffffffffffffff82614154565b6141998683614154565b95508019841693508086168417925050509392505050565b5f6141cb6141c66141c184612b36565b612fd5565b612b36565b9050919050565b5f819050919050565b6141e4836141b1565b6141f86141f0826141d2565b848454614160565b825550505050565b5f5f905090565b61420f614200565b61421a8184846141db565b505050565b5f5b82811015614240576142355f828401614207565b600181019050614221565b505050565b601f82111561429357828211156142925761425f81614133565b61426883614145565b61427185614145565b602086101561427e575f90505b80830161428d8284038261421f565b505050505b5b505050565b5f82821c905092915050565b5f6142b35f1984600802614298565b1980831691505092915050565b5f6142cb83836142a4565b9150826002028217905092915050565b6142e482612b94565b67ffffffffffffffff8111156142fd576142fc61376f565b5b614307825461359f565b614312828285614245565b5f60209050601f831160018114614343575f8415614331578287015190505b61433b85826142c0565b8655506143a2565b601f19841661435186614133565b5f5b8281101561437857848901518255600182019150602085019450602081019050614353565b868310156143955784890151614391601f8916826142a4565b8355505b6001600288020188555050505b505050505050565b5f6143b482612fff565b9050919050565b6143c4816143aa565b82525050565b828183375f83830152505050565b5f6143e38385612b9e565b93506143f08385846143ca565b6143f983612bbc565b840190509392505050565b5f60c0820190506144175f83018a612fad565b61442460208301896143bb565b6144316040830188612c84565b61443e6060830187612c84565b61444b60808301866133ce565b81810360a083015261445e8184866143d8565b905098975050505050505050565b7f4d61726b6574706c6163653a206e6f742064697370757461626c6500000000005f82015250565b5f6144a0601b83612b9e565b91506144ab8261446c565b602082019050919050565b5f6020820190508181035f8301526144cd81614494565b9050919050565b7f4d61726b6574706c6163653a206e6f7420726566756e6461626c6500000000005f82015250565b5f614508601b83612b9e565b9150614513826144d4565b602082019050919050565b5f6020820190508181035f830152614535816144fc565b9050919050565b7f4d61726b6574706c6163653a206e6f74206c697374696e672073656c6c6572005f82015250565b5f614570601f83612b9e565b915061457b8261453c565b602082019050919050565b5f6020820190508181035f83015261459d81614564565b905091905056fea264697066735822122052290c9c8477ee7d2b5c8e9699b5a5c3203b2a85e9f2d533387a6b80171d068464736f6c63430008210033","linkReferences":{}},"methodIdentifiers":{"compareListings(uint256)":"bda788ab","deactivateListing(uint256)":"3b8d915f","disputeOrder(uint256)":"a09970b2","getAllActiveListings()":"701e5084","getBuyerOrders(address)":"a45f2ebc","getReceiptURI(uint256)":"125bc603","getSellerListings(address)":"5f42da09","listProduct(uint256,uint256,uint256)":"8162447c","listings(uint256)":"de74e57b","orders(uint256)":"a85c38ef","owner()":"8da5cb5b","paused()":"5c975abb","placeOrder(uint256,uint256,bytes32,string)":"9a75b163","platformFee()":"26232a2e","productNFT()":"8fcdeba1","receiptHashToOrder(bytes32)":"8c570aaf","refundOrder(uint256)":"c018c457","renounceOwnership()":"715018a6","setPaused(bool)":"16c38b3c","setPlatformFee(uint256)":"12e8e2c3","totalListings()":"c78b616c","totalOrders()":"1d834409","transferOwnership(address)":"f2fde38b","updateListing(uint256,uint256,uint256)":"f6cf2a16","verifyReceipt(bytes32)":"8174794e","withdrawFees()":"476343ee"},"id":22}