{"abi":[{"type":"constructor","inputs":[{"name":"_productNFT","type":"address","internalType":"address"}],"stateMutability":"nonpayable"},{"type":"function","name":"compareListings","inputs":[{"name":"tokenId","type":"uint256","internalType":"uint256"}],"outputs":[{"name":"activeListings","type":"tuple[]","internalType":"struct Marketplace.Listing[]","components":[{"name":"listingId","type":"uint256","internalType":"uint256"},{"name":"tokenId","type":"uint256","internalType":"uint256"},{"name":"seller","type":"address","internalType":"address payable"},{"name":"price","type":"uint256","internalType":"uint256"},{"name":"quantity","type":"uint256","internalType":"uint256"},{"name":"active","type":"bool","internalType":"bool"}]}],"stateMutability":"view"},{"type":"function","name":"deactivateListing","inputs":[{"name":"listingId","type":"uint256","internalType":"uint256"}],"outputs":[],"stateMutability":"nonpayable"},{"type":"function","name":"disputeOrder","inputs":[{"name":"orderId","type":"uint256","internalType":"uint256"}],"outputs":[],"stateMutability":"nonpayable"},{"type":"function","name":"getAllActiveListings","inputs":[],"outputs":[{"name":"","type":"tuple[]","internalType":"struct Marketplace.Listing[]","components":[{"name":"listingId","type":"uint256","internalType":"uint256"},{"name":"tokenId","type":"uint256","internalType":"uint256"},{"name":"seller","type":"address","internalType":"address payable"},{"name":"price","type":"uint256","internalType":"uint256"},{"name":"quantity","type":"uint256","internalType":"uint256"},{"name":"active","type":"bool","internalType":"bool"}]}],"stateMutability":"view"},{"type":"function","name":"getBuyerOrders","inputs":[{"name":"buyer","type":"address","internalType":"address"}],"outputs":[{"name":"","type":"tuple[]","internalType":"struct Marketplace.Order[]","components":[{"name":"orderId","type":"uint256","internalType":"uint256"},{"name":"listingId","type":"uint256","internalType":"uint256"},{"name":"tokenId","type":"uint256","internalType":"uint256"},{"name":"buyer","type":"address","internalType":"address"},{"name":"seller","type":"address","internalType":"address"},{"name":"price","type":"uint256","internalType":"uint256"},{"name":"quantity","type":"uint256","internalType":"uint256"},{"name":"timestamp","type":"uint256","internalType":"uint256"},{"name":"receiptHash","type":"bytes32","internalType":"bytes32"},{"name":"receiptURI","type":"string","internalType":"string"},{"name":"status","type":"uint8","internalType":"enum Marketplace.OrderStatus"}]}],"stateMutability":"view"},{"type":"function","name":"getListing","inputs":[{"name":"listingId","type":"uint256","internalType":"uint256"}],"outputs":[{"name":"","type":"tuple","internalType":"struct Marketplace.Listing","components":[{"name":"listingId","type":"uint256","internalType":"uint256"},{"name":"tokenId","type":"uint256","internalType":"uint256"},{"name":"seller","type":"address","internalType":"address payable"},{"name":"price","type":"uint256","internalType":"uint256"},{"name":"quantity","type":"uint256","internalType":"uint256"},{"name":"active","type":"bool","internalType":"bool"}]}],"stateMutability":"view"},{"type":"function","name":"getOrder","inputs":[{"name":"orderId","type":"uint256","internalType":"uint256"}],"outputs":[{"name":"","type":"tuple","internalType":"struct Marketplace.Order","components":[{"name":"orderId","type":"uint256","internalType":"uint256"},{"name":"listingId","type":"uint256","internalType":"uint256"},{"name":"tokenId","type":"uint256","internalType":"uint256"},{"name":"buyer","type":"address","internalType":"address"},{"name":"seller","type":"address","internalType":"address"},{"name":"price","type":"uint256","internalType":"uint256"},{"name":"quantity","type":"uint256","internalType":"uint256"},{"name":"timestamp","type":"uint256","internalType":"uint256"},{"name":"receiptHash","type":"bytes32","internalType":"bytes32"},{"name":"receiptURI","type":"string","internalType":"string"},{"name":"status","type":"uint8","internalType":"enum Marketplace.OrderStatus"}]}],"stateMutability":"view"},{"type":"function","name":"getReceiptURI","inputs":[{"name":"orderId","type":"uint256","internalType":"uint256"}],"outputs":[{"name":"","type":"string","internalType":"string"}],"stateMutability":"view"},{"type":"function","name":"getSellerListings","inputs":[{"name":"seller","type":"address","internalType":"address"}],"outputs":[{"name":"","type":"tuple[]","internalType":"struct Marketplace.Listing[]","components":[{"name":"listingId","type":"uint256","internalType":"uint256"},{"name":"tokenId","type":"uint256","internalType":"uint256"},{"name":"seller","type":"address","internalType":"address payable"},{"name":"price","type":"uint256","internalType":"uint256"},{"name":"quantity","type":"uint256","internalType":"uint256"},{"name":"active","type":"bool","internalType":"bool"}]}],"stateMutability":"view"},{"type":"function","name":"listProduct","inputs":[{"name":"tokenId","type":"uint256","internalType":"uint256"},{"name":"price","type":"uint256","internalType":"uint256"},{"name":"quantity","type":"uint256","internalType":"uint256"}],"outputs":[{"name":"","type":"uint256","internalType":"uint256"}],"stateMutability":"nonpayable"},{"type":"function","name":"listings","inputs":[{"name":"","type":"uint256","internalType":"uint256"}],"outputs":[{"name":"listingId","type":"uint256","internalType":"uint256"},{"name":"tokenId","type":"uint256","internalType":"uint256"},{"name":"seller","type":"address","internalType":"address payable"},{"name":"price","type":"uint256","internalType":"uint256"},{"name":"quantity","type":"uint256","internalType":"uint256"},{"name":"active","type":"bool","internalType":"bool"}],"stateMutability":"view"},{"type":"function","name":"orders","inputs":[{"name":"","type":"uint256","internalType":"uint256"}],"outputs":[{"name":"orderId","type":"uint256","internalType":"uint256"},{"name":"listingId","type":"uint256","internalType":"uint256"},{"name":"tokenId","type":"uint256","internalType":"uint256"},{"name":"buyer","type":"address","internalType":"address"},{"name":"seller","type":"address","internalType":"address"},{"name":"price","type":"uint256","internalType":"uint256"},{"name":"quantity","type":"uint256","internalType":"uint256"},{"name":"timestamp","type":"uint256","internalType":"uint256"},{"name":"receiptHash","type":"bytes32","internalType":"bytes32"},{"name":"receiptURI","type":"string","internalType":"string"},{"name":"status","type":"uint8","internalType":"enum Marketplace.OrderStatus"}],"stateMutability":"view"},{"type":"function","name":"owner","inputs":[],"outputs":[{"name":"","type":"address","internalType":"address"}],"stateMutability":"view"},{"type":"function","name":"paused","inputs":[],"outputs":[{"name":"","type":"bool","internalType":"bool"}],"stateMutability":"view"},{"type":"function","name":"placeOrder","inputs":[{"name":"listingId","type":"uint256","internalType":"uint256"},{"name":"quantity","type":"uint256","internalType":"uint256"},{"name":"receiptHash","type":"bytes32","internalType":"bytes32"},{"name":"receiptURI","type":"string","internalType":"string"}],"outputs":[],"stateMutability":"payable"},{"type":"function","name":"platformFee","inputs":[],"outputs":[{"name":"","type":"uint256","internalType":"uint256"}],"stateMutability":"view"},{"type":"function","name":"productNFT","inputs":[],"outputs":[{"name":"","type":"address","internalType":"contract ProductNFT"}],"stateMutability":"view"},{"type":"function","name":"receiptHashToOrder","inputs":[{"name":"","type":"bytes32","internalType":"bytes32"}],"outputs":[{"name":"","type":"uint256","internalType":"uint256"}],"stateMutability":"view"},{"type":"function","name":"refundOrder","inputs":[{"name":"orderId","type":"uint256","internalType":"uint256"}],"outputs":[],"stateMutability":"nonpayable"},{"type":"function","name":"renounceOwnership","inputs":[],"outputs":[],"stateMutability":"nonpayable"},{"type":"function","name":"setPaused","inputs":[{"name":"_paused","type":"bool","internalType":"bool"}],"outputs":[],"stateMutability":"nonpayable"},{"type":"function","name":"setPlatformFee","inputs":[{"name":"newFee","type":"uint256","internalType":"uint256"}],"outputs":[],"stateMutability":"nonpayable"},{"type":"function","name":"totalListings","inputs":[],"outputs":[{"name":"","type":"uint256","internalType":"uint256"}],"stateMutability":"view"},{"type":"function","name":"totalOrders","inputs":[],"outputs":[{"name":"","type":"uint256","internalType":"uint256"}],"stateMutability":"view"},{"type":"function","name":"transferOwnership","inputs":[{"name":"newOwner","type":"address","internalType":"address"}],"outputs":[],"stateMutability":"nonpayable"},{"type":"function","name":"updateListing","inputs":[{"name":"listingId","type":"uint256","internalType":"uint256"},{"name":"newPrice","type":"uint256","internalType":"uint256"},{"name":"newQuantity","type":"uint256","internalType":"uint256"}],"outputs":[],"stateMutability":"nonpayable"},{"type":"function","name":"verifyReceipt","inputs":[{"name":"receiptHash","type":"bytes32","internalType":"bytes32"}],"outputs":[{"name":"valid","type":"bool","internalType":"bool"},{"name":"orderId","type":"uint256","internalType":"uint256"}],"stateMutability":"view"},{"type":"function","name":"withdrawFees","inputs":[],"outputs":[],"stateMutability":"nonpayable"},{"type":"event","name":"FeesWithdrawn","inputs":[{"name":"owner","type":"address","indexed":false,"internalType":"address"},{"name":"amount","type":"uint256","indexed":false,"internalType":"uint256"}],"anonymous":false},{"type":"event","name":"ListingDeactivated","inputs":[{"name":"listingId","type":"uint256","indexed":true,"internalType":"uint256"}],"anonymous":false},{"type":"event","name":"ListingUpdated","inputs":[{"name":"listingId","type":"uint256","indexed":true,"internalType":"uint256"},{"name":"newPrice","type":"uint256","indexed":false,"internalType":"uint256"},{"name":"newQuantity","type":"uint256","indexed":false,"internalType":"uint256"}],"anonymous":false},{"type":"event","name":"OrderDisputed","inputs":[{"name":"orderId","type":"uint256","indexed":true,"internalType":"uint256"},{"name":"buyer","type":"address","indexed":false,"internalType":"address"}],"anonymous":false},{"type":"event","name":"OrderPlaced","inputs":[{"name":"orderId","type":"uint256","indexed":true,"internalType":"uint256"},{"name":"listingId","type":"uint256","indexed":true,"internalType":"uint256"},{"name":"tokenId","type":"uint256","indexed":true,"internalType":"uint256"},{"name":"buyer","type":"address","indexed":false,"internalType":"address"},{"name":"seller","type":"address","indexed":false,"internalType":"address"},{"name":"price","type":"uint256","indexed":false,"internalType":"uint256"},{"name":"quantity","type":"uint256","indexed":false,"internalType":"uint256"},{"name":"receiptHash","type":"bytes32","indexed":false,"internalType":"bytes32"},{"name":"receiptURI","type":"string","indexed":false,"internalType":"string"}],"anonymous":false},{"type":"event","name":"OrderRefunded","inputs":[{"name":"orderId","type":"uint256","indexed":true,"internalType":"uint256"},{"name":"buyer","type":"address","indexed":false,"internalType":"address"},{"name":"amount","type":"uint256","indexed":false,"internalType":"uint256"}],"anonymous":false},{"type":"event","name":"OwnershipTransferred","inputs":[{"name":"previousOwner","type":"address","indexed":true,"internalType":"address"},{"name":"newOwner","type":"address","indexed":true,"internalType":"address"}],"anonymous":false},{"type":"event","name":"Paused","inputs":[{"name":"isPaused","type":"bool","indexed":false,"internalType":"bool"}],"anonymous":false},{"type":"event","name":"PlatformFeeUpdated","inputs":[{"name":"newFee","type":"uint256","indexed":false,"internalType":"uint256"}],"anonymous":false},{"type":"event","name":"ProductListed","inputs":[{"name":"listingId","type":"uint256","indexed":true,"internalType":"uint256"},{"name":"tokenId","type":"uint256","indexed":true,"internalType":"uint256"},{"name":"seller","type":"address","indexed":true,"internalType":"address"},{"name":"price","type":"uint256","indexed":false,"internalType":"uint256"},{"name":"quantity","type":"uint256","indexed":false,"internalType":"uint256"}],"anonymous":false},{"type":"error","name":"OwnableInvalidOwner","inputs":[{"name":"owner","type":"address","internalType":"address"}]},{"type":"error","name":"OwnableUnauthorizedAccount","inputs":[{"name":"account","type":"address","internalType":"address"}]},{"type":"error","name":"ReentrancyGuardReentrantCall","inputs":[]}],"bytecode":{"object":"0x608060405266038d7ea4c6800060025534801561001a575f5ffd5b50604051614e8a380380614e8a833981810160405281019061003c91906102e6565b33600161005b61005061019560201b60201c565b6101be60201b60201c565b5f01819055505f73ffffffffffffffffffffffffffffffffffffffff168173ffffffffffffffffffffffffffffffffffffffff16036100d1575f6040517f1e4fbdf70000000000000000000000000000000000000000000000000000000081526004016100c89190610320565b60405180910390fd5b6100e0816101c760201b60201c565b505f73ffffffffffffffffffffffffffffffffffffffff168173ffffffffffffffffffffffffffffffffffffffff160361014f576040517f08c379a000000000000000000000000000000000000000000000000000000000815260040161014690610393565b60405180910390fd5b8060015f6101000a81548173ffffffffffffffffffffffffffffffffffffffff021916908373ffffffffffffffffffffffffffffffffffffffff160217905550506103b1565b5f7f9b779b17422d0df92223018b32b4d1fa46e071723d6817e2486d003becc55f005f1b905090565b5f819050919050565b5f5f5f9054906101000a900473ffffffffffffffffffffffffffffffffffffffff169050815f5f6101000a81548173ffffffffffffffffffffffffffffffffffffffff021916908373ffffffffffffffffffffffffffffffffffffffff1602179055508173ffffffffffffffffffffffffffffffffffffffff168173ffffffffffffffffffffffffffffffffffffffff167f8be0079c531659141344cd1fd0a4f28419497f9722a3daafe3b4186f6b6457e060405160405180910390a35050565b5f5ffd5b5f73ffffffffffffffffffffffffffffffffffffffff82169050919050565b5f6102b58261028c565b9050919050565b6102c5816102ab565b81146102cf575f5ffd5b50565b5f815190506102e0816102bc565b92915050565b5f602082840312156102fb576102fa610288565b5b5f610308848285016102d2565b91505092915050565b61031a816102ab565b82525050565b5f6020820190506103335f830184610311565b92915050565b5f82825260208201905092915050565b7f4d61726b6574706c6163653a207a65726f2061646472657373000000000000005f82015250565b5f61037d601983610339565b915061038882610349565b602082019050919050565b5f6020820190508181035f8301526103aa81610371565b9050919050565b614acc806103be5f395ff3fe6080604052600436106101b6575f3560e01c80638c570aaf116100eb578063bda788ab11610089578063d09ef24111610063578063d09ef24114610617578063de74e57b14610653578063f2fde38b14610694578063f6cf2a16146106bc576101b6565b8063bda788ab14610589578063c018c457146105c5578063c78b616c146105ed576101b6565b80639a75b163116100c55780639a75b163146104c3578063a09970b2146104df578063a45f2ebc14610507578063a85c38ef14610543576101b6565b80638c570aaf146104335780638da5cb5b1461046f5780638fcdeba114610499576101b6565b8063476343ee11610158578063701e508411610132578063701e50841461037a578063715018a6146103a45780638162447c146103ba5780638174794e146103f6576101b6565b8063476343ee146102fe5780635c975abb146103145780635f42da091461033e576101b6565b806316c38b3c1161019457806316c38b3c1461025a5780631d8344091461028257806326232a2e146102ac5780633b8d915f146102d6576101b6565b8063107a274a146101ba578063125bc603146101f657806312e8e2c314610232575b5f5ffd5b3480156101c5575f5ffd5b506101e060048036038101906101db9190612ebd565b6106e4565b6040516101ed9190612fc9565b60405180910390f35b348015610201575f5ffd5b5061021c60048036038101906102179190612ebd565b6107a5565b6040516102299190613052565b60405180910390f35b34801561023d575f5ffd5b5061025860048036038101906102539190612ebd565b61089e565b005b348015610265575f5ffd5b50610280600480360381019061027b919061309c565b6108e7565b005b34801561028d575f5ffd5b50610296610942565b6040516102a391906130d6565b60405180910390f35b3480156102b7575f5ffd5b506102c061094b565b6040516102cd91906130d6565b60405180910390f35b3480156102e1575f5ffd5b506102fc60048036038101906102f79190612ebd565b610951565b005b348015610309575f5ffd5b50610312610a7f565b005b34801561031f575f5ffd5b50610328610bc0565b60405161033591906130fe565b60405180910390f35b348015610349575f5ffd5b50610364600480360381019061035f9190613152565b610bd2565b604051610371919061329e565b60405180910390f35b348015610385575f5ffd5b5061038e610d80565b60405161039b919061329e565b60405180910390f35b3480156103af575f5ffd5b506103b8610f67565b005b3480156103c5575f5ffd5b506103e060048036038101906103db91906132be565b610f7a565b6040516103ed91906130d6565b60405180910390f35b348015610401575f5ffd5b5061041c60048036038101906104179190613341565b61143e565b60405161042a92919061336c565b60405180910390f35b34801561043e575f5ffd5b5061045960048036038101906104549190613341565b6114ae565b60405161046691906130d6565b60405180910390f35b34801561047a575f5ffd5b506104836114c3565b60405161049091906133a2565b60405180910390f35b3480156104a4575f5ffd5b506104ad6114ea565b6040516104ba9190613416565b60405180910390f35b6104dd60048036038101906104d89190613490565b61150f565b005b3480156104ea575f5ffd5b5061050560048036038101906105009190612ebd565b611b98565b005b348015610512575f5ffd5b5061052d60048036038101906105289190613152565b611cfa565b60405161053a9190613794565b60405180910390f35b34801561054e575f5ffd5b5061056960048036038101906105649190612ebd565b611fcc565b6040516105809b9a999897969594939291906137d2565b60405180910390f35b348015610594575f5ffd5b506105af60048036038101906105aa9190612ebd565b6120f2565b6040516105bc919061329e565b60405180910390f35b3480156105d0575f5ffd5b506105eb60048036038101906105e69190612ebd565b612452565b005b3480156105f8575f5ffd5b5061060161269a565b60405161060e91906130d6565b60405180910390f35b348015610622575f5ffd5b5061063d60048036038101906106389190612ebd565b6126a3565b60405161064a919061396e565b60405180910390f35b34801561065e575f5ffd5b5061067960048036038101906106749190612ebd565b612888565b60405161068b9695949392919061399d565b60405180910390f35b34801561069f575f5ffd5b506106ba60048036038101906106b59190613152565b6128eb565b005b3480156106c7575f5ffd5b506106e260048036038101906106dd91906132be565b61296f565b005b6106ec612da3565b60065f8381526020019081526020015f206040518060c00160405290815f820154815260200160018201548152602001600282015f9054906101000a900473ffffffffffffffffffffffffffffffffffffffff1673ffffffffffffffffffffffffffffffffffffffff1673ffffffffffffffffffffffffffffffffffffffff1681526020016003820154815260200160048201548152602001600582015f9054906101000a900460ff1615151515815250509050919050565b60608160075f8481526020019081526020015f205f0154146107fc576040517f08c379a00000000000000000000000000000000000000000000000000000000081526004016107f390613a46565b60405180910390fd5b60075f8381526020019081526020015f20600901805461081b90613a91565b80601f016020809104026020016040519081016040528092919081815260200182805461084790613a91565b80156108925780601f1061086957610100808354040283529160200191610892565b820191905f5260205f20905b81548152906001019060200180831161087557829003601f168201915b50505050509050919050565b6108a6612b89565b806002819055507f45610d581145924dd7090a5017e5f2b1d6f42213bb2e95707ff86846bbfcb1ca816040516108dc91906130d6565b60405180910390a150565b6108ef612b89565b8060035f6101000a81548160ff0219169083151502179055507f0e2fb031ee032dc02d8011dc50b816eb450cf856abd8261680dac74f72165bd28160405161093791906130fe565b60405180910390a150565b5f600554905090565b60025481565b5f60065f8381526020019081526020015f2090503373ffffffffffffffffffffffffffffffffffffffff16816002015f9054906101000a900473ffffffffffffffffffffffffffffffffffffffff1673ffffffffffffffffffffffffffffffffffffffff1614806109f457506109c56114c3565b73ffffffffffffffffffffffffffffffffffffffff163373ffffffffffffffffffffffffffffffffffffffff16145b610a33576040517f08c379a0000000000000000000000000000000000000000000000000000000008152600401610a2a90613b0b565b60405180910390fd5b5f816005015f6101000a81548160ff021916908315150217905550817fe8a884965a7fb1b7c1efd55ff478bcbd880c4b226a2e2218b83d31c493964ab360405160405180910390a25050565b610a87612b89565b5f4790505f8111610acd576040517f08c379a0000000000000000000000000000000000000000000000000000000008152600401610ac490613b73565b60405180910390fd5b5f610ad66114c3565b73ffffffffffffffffffffffffffffffffffffffff1682604051610af990613bbe565b5f6040518083038185875af1925050503d805f8114610b33576040519150601f19603f3d011682016040523d82523d5f602084013e610b38565b606091505b5050905080610b7c576040517f08c379a0000000000000000000000000000000000000000000000000000000008152600401610b7390613c1c565b60405180910390fd5b7fc0819c13be868895eb93e40eaceb96de976442fa1d404e5c55f14bb65a8c489a610ba56114c3565b83604051610bb4929190613c3a565b60405180910390a15050565b60035f9054906101000a900460ff1681565b60605f600a5f8473ffffffffffffffffffffffffffffffffffffffff1673ffffffffffffffffffffffffffffffffffffffff1681526020019081526020015f2090505f818054905067ffffffffffffffff811115610c3357610c32613c61565b5b604051908082528060200260200182016040528015610c6c57816020015b610c59612da3565b815260200190600190039081610c515790505b5090505f5b8280549050811015610d755760065f848381548110610c9357610c92613c8e565b5b905f5260205f20015481526020019081526020015f206040518060c00160405290815f820154815260200160018201548152602001600282015f9054906101000a900473ffffffffffffffffffffffffffffffffffffffff1673ffffffffffffffffffffffffffffffffffffffff1673ffffffffffffffffffffffffffffffffffffffff1681526020016003820154815260200160048201548152602001600582015f9054906101000a900460ff161515151581525050828281518110610d5d57610d5c613c8e565b5b60200260200101819052508080600101915050610c71565b508092505050919050565b60605f60045490505f5f600190505b828111610dde5760065f8281526020019081526020015f206005015f9054906101000a900460ff1615610dcb578180610dc790613ce8565b9250505b8080610dd690613ce8565b915050610d8f565b505f8167ffffffffffffffff811115610dfa57610df9613c61565b5b604051908082528060200260200182016040528015610e3357816020015b610e20612da3565b815260200190600190039081610e185790505b5090505f5f600190505b848111610f5c5760065f8281526020019081526020015f206005015f9054906101000a900460ff1615610f495760065f8281526020019081526020015f206040518060c00160405290815f820154815260200160018201548152602001600282015f9054906101000a900473ffffffffffffffffffffffffffffffffffffffff1673ffffffffffffffffffffffffffffffffffffffff1673ffffffffffffffffffffffffffffffffffffffff1681526020016003820154815260200160048201548152602001600582015f9054906101000a900460ff161515151581525050838381518110610f2f57610f2e613c8e565b5b60200260200101819052508180610f4590613ce8565b9250505b8080610f5490613ce8565b915050610e3d565b508194505050505090565b610f6f612b89565b610f785f612c10565b565b5f610f836114c3565b73ffffffffffffffffffffffffffffffffffffffff163373ffffffffffffffffffffffffffffffffffffffff161480611051575060015f9054906101000a900473ffffffffffffffffffffffffffffffffffffffff1673ffffffffffffffffffffffffffffffffffffffff1663931e52ee336040518263ffffffff1660e01b815260040161101191906133a2565b602060405180830381865afa15801561102c573d5f5f3e3d5ffd5b505050506040513d601f19601f820116820180604052508101906110509190613d43565b5b611090576040517f08c379a000000000000000000000000000000000000000000000000000000000815260040161108790613dde565b60405180910390fd5b60035f9054906101000a900460ff16156110df576040517f08c379a00000000000000000000000000000000000000000000000000000000081526004016110d690613e46565b60405180910390fd5b5f8311611121576040517f08c379a000000000000000000000000000000000000000000000000000000000815260040161111890613eae565b60405180910390fd5b5f8211611163576040517f08c379a000000000000000000000000000000000000000000000000000000000815260040161115a90613f3c565b60405180910390fd5b5f60015f9054906101000a900473ffffffffffffffffffffffffffffffffffffffff1673ffffffffffffffffffffffffffffffffffffffff1663b9db15b4866040518263ffffffff1660e01b81526004016111be91906130d6565b5f60405180830381865afa1580156111d8573d5f5f3e3d5ffd5b505050506040513d5f823e3d601f19601f820116820180604052508101906112009190614138565b90508060800151611246576040517f08c379a000000000000000000000000000000000000000000000000000000000815260040161123d906141ef565b60405180910390fd5b600160045f828254611258919061420d565b925050819055505f60045490506040518060c001604052808281526020018781526020013373ffffffffffffffffffffffffffffffffffffffff1681526020018681526020018581526020016001151581525060065f8381526020019081526020015f205f820151815f0155602082015181600101556040820151816002015f6101000a81548173ffffffffffffffffffffffffffffffffffffffff021916908373ffffffffffffffffffffffffffffffffffffffff160217905550606082015181600301556080820151816004015560a0820151816005015f6101000a81548160ff02191690831515021790555090505060085f8781526020019081526020015f2081908060018154018082558091505060019003905f5260205f20015f9091909190915055600a5f3373ffffffffffffffffffffffffffffffffffffffff1673ffffffffffffffffffffffffffffffffffffffff1681526020019081526020015f2081908060018154018082558091505060019003905f5260205f20015f90919091909150553373ffffffffffffffffffffffffffffffffffffffff1686827f311f1967bae876e3c4f7eed4cdaeaa4c166d015ff44bb9328d33dad8b62524b2888860405161142a929190614240565b60405180910390a480925050509392505050565b5f5f600b5f8481526020019081526020015f205490505f81141580156114a757505f6002811115611472576114716135a3565b5b60075f8381526020019081526020015f20600a015f9054906101000a900460ff1660028111156114a5576114a46135a3565b5b145b9150915091565b600b602052805f5260405f205f915090505481565b5f5f5f9054906101000a900473ffffffffffffffffffffffffffffffffffffffff16905090565b60015f9054906101000a900473ffffffffffffffffffffffffffffffffffffffff1681565b611517612cd1565b60035f9054906101000a900460ff1615611566576040517f08c379a000000000000000000000000000000000000000000000000000000000815260040161155d90613e46565b60405180910390fd5b5f60065f8781526020019081526020015f209050806005015f9054906101000a900460ff166115ca576040517f08c379a00000000000000000000000000000000000000000000000000000000081526004016115c1906142b1565b60405180910390fd5b5f851161160c576040517f08c379a000000000000000000000000000000000000000000000000000000000815260040161160390613f3c565b60405180910390fd5b8060040154851115611653576040517f08c379a000000000000000000000000000000000000000000000000000000000815260040161164a90614319565b60405180910390fd5b806002015f9054906101000a900473ffffffffffffffffffffffffffffffffffffffff1673ffffffffffffffffffffffffffffffffffffffff163373ffffffffffffffffffffffffffffffffffffffff16036116e4576040517f08c379a00000000000000000000000000000000000000000000000000000000081526004016116db906143a7565b60405180910390fd5b5f5f1b8403611728576040517f08c379a000000000000000000000000000000000000000000000000000000000815260040161171f9061440f565b60405180910390fd5b5f838390501161176d576040517f08c379a000000000000000000000000000000000000000000000000000000000815260040161176490614477565b60405180910390fd5b5f600b5f8681526020019081526020015f2054146117c0576040517f08c379a00000000000000000000000000000000000000000000000000000000081526004016117b790614505565b60405180910390fd5b5f8582600301546117d19190614523565b9050600254816117e1919061420d565b3414611822576040517f08c379a0000000000000000000000000000000000000000000000000000000008152600401611819906145d4565b60405180910390fd5b85826004015f82825461183591906145f2565b925050819055505f826004015403611863575f826005015f6101000a81548160ff0219169083151502179055505b600160055f828254611875919061420d565b925050819055505f6005549050604051806101600160405280828152602001898152602001846001015481526020013373ffffffffffffffffffffffffffffffffffffffff168152602001846002015f9054906101000a900473ffffffffffffffffffffffffffffffffffffffff1673ffffffffffffffffffffffffffffffffffffffff16815260200183815260200188815260200142815260200187815260200186868080601f0160208091040260200160405190810160405280939291908181526020018383808284375f81840152601f19601f8201169050808301925050505050505081526020015f6002811115611973576119726135a3565b5b81525060075f8381526020019081526020015f205f820151815f015560208201518160010155604082015181600201556060820151816003015f6101000a81548173ffffffffffffffffffffffffffffffffffffffff021916908373ffffffffffffffffffffffffffffffffffffffff1602179055506080820151816004015f6101000a81548173ffffffffffffffffffffffffffffffffffffffff021916908373ffffffffffffffffffffffffffffffffffffffff16021790555060a0820151816005015560c0820151816006015560e082015181600701556101008201518160080155610120820151816009019081611a6e91906147cd565b5061014082015181600a015f6101000a81548160ff02191690836002811115611a9a57611a996135a3565b5b021790555090505060095f3373ffffffffffffffffffffffffffffffffffffffff1673ffffffffffffffffffffffffffffffffffffffff1681526020019081526020015f2081908060018154018082558091505060019003905f5260205f20015f909190919091505580600b5f8881526020019081526020015f2081905550826001015488827f1d646d1c4cbab18d8908245eb90b39457ac8e612af66320307bea3f47190f13133876002015f9054906101000a900473ffffffffffffffffffffffffffffffffffffffff16878d8d8d8d604051611b7e97969594939291906148f6565b60405180910390a4505050611b91612cf3565b5050505050565b611ba0612b89565b5f60075f8381526020019081526020015f20905081815f015414611bf9576040517f08c379a0000000000000000000000000000000000000000000000000000000008152600401611bf090613a46565b60405180910390fd5b5f6002811115611c0c57611c0b6135a3565b5b81600a015f9054906101000a900460ff166002811115611c2f57611c2e6135a3565b5b14611c6f576040517f08c379a0000000000000000000000000000000000000000000000000000000008152600401611c66906149a8565b60405180910390fd5b600281600a015f6101000a81548160ff02191690836002811115611c9657611c956135a3565b5b0217905550817fde481be1936299e9233634e9f3cd92028f797634de15defa790fb2d7a013c95a826003015f9054906101000a900473ffffffffffffffffffffffffffffffffffffffff16604051611cee91906133a2565b60405180910390a25050565b60605f60095f8473ffffffffffffffffffffffffffffffffffffffff1673ffffffffffffffffffffffffffffffffffffffff1681526020019081526020015f2090505f818054905067ffffffffffffffff811115611d5b57611d5a613c61565b5b604051908082528060200260200182016040528015611d9457816020015b611d81612deb565b815260200190600190039081611d795790505b5090505f5b8280549050811015611fc15760075f848381548110611dbb57611dba613c8e565b5b905f5260205f20015481526020019081526020015f20604051806101600160405290815f82015481526020016001820154815260200160028201548152602001600382015f9054906101000a900473ffffffffffffffffffffffffffffffffffffffff1673ffffffffffffffffffffffffffffffffffffffff1673ffffffffffffffffffffffffffffffffffffffff168152602001600482015f9054906101000a900473ffffffffffffffffffffffffffffffffffffffff1673ffffffffffffffffffffffffffffffffffffffff1673ffffffffffffffffffffffffffffffffffffffff16815260200160058201548152602001600682015481526020016007820154815260200160088201548152602001600982018054611edc90613a91565b80601f0160208091040260200160405190810160405280929190818152602001828054611f0890613a91565b8015611f535780601f10611f2a57610100808354040283529160200191611f53565b820191905f5260205f20905b815481529060010190602001808311611f3657829003601f168201915b50505050508152602001600a82015f9054906101000a900460ff166002811115611f8057611f7f6135a3565b5b6002811115611f9257611f916135a3565b5b81525050828281518110611fa957611fa8613c8e565b5b60200260200101819052508080600101915050611d99565b508092505050919050565b6007602052805f5260405f205f91509050805f015490806001015490806002015490806003015f9054906101000a900473ffffffffffffffffffffffffffffffffffffffff1690806004015f9054906101000a900473ffffffffffffffffffffffffffffffffffffffff169080600501549080600601549080600701549080600801549080600901805461205f90613a91565b80601f016020809104026020016040519081016040528092919081815260200182805461208b90613a91565b80156120d65780601f106120ad576101008083540402835291602001916120d6565b820191905f5260205f20905b8154815290600101906020018083116120b957829003601f168201915b50505050509080600a015f9054906101000a900460ff1690508b565b60605f60085f8481526020019081526020015f2090505f5f5b82805490508110156121745760065f84838154811061212d5761212c613c8e565b5b905f5260205f20015481526020019081526020015f206005015f9054906101000a900460ff161561216757818061216390613ce8565b9250505b808060010191505061210b565b508067ffffffffffffffff81111561218f5761218e613c61565b5b6040519080825280602002602001820160405280156121c857816020015b6121b5612da3565b8152602001906001900390816121ad5790505b5092505f5f5b83805490508110156123225760065f8583815481106121f0576121ef613c8e565b5b905f5260205f20015481526020019081526020015f206005015f9054906101000a900460ff16156123155760065f85838154811061223157612230613c8e565b5b905f5260205f20015481526020019081526020015f206040518060c00160405290815f820154815260200160018201548152602001600282015f9054906101000a900473ffffffffffffffffffffffffffffffffffffffff1673ffffffffffffffffffffffffffffffffffffffff1673ffffffffffffffffffffffffffffffffffffffff1681526020016003820154815260200160048201548152602001600582015f9054906101000a900460ff1615151515815250508583815181106122fb576122fa613c8e565b5b6020026020010181905250818061231190613ce8565b9250505b80806001019150506121ce565b505f5b82811015612449575f5b8160018561233d91906145f2565b61234791906145f2565b81101561243b578560018261235c919061420d565b8151811061236d5761236c613c8e565b5b60200260200101516060015186828151811061238c5761238b613c8e565b5b602002602001015160600151111561242e575f8682815181106123b2576123b1613c8e565b5b60200260200101519050866001836123ca919061420d565b815181106123db576123da613c8e565b5b60200260200101518783815181106123f6576123f5613c8e565b5b60200260200101819052508087600184612410919061420d565b8151811061242157612420613c8e565b5b6020026020010181905250505b808060010191505061232f565b508080600101915050612325565b50505050919050565b61245a612b89565b612462612cd1565b5f60075f8381526020019081526020015f20905081815f0154146124bb576040517f08c379a00000000000000000000000000000000000000000000000000000000081526004016124b290613a46565b60405180910390fd5b5f60028111156124ce576124cd6135a3565b5b81600a015f9054906101000a900460ff1660028111156124f1576124f06135a3565b5b14612531576040517f08c379a000000000000000000000000000000000000000000000000000000000815260040161252890614a10565b60405180910390fd5b600181600a015f6101000a81548160ff02191690836002811115612558576125576135a3565b5b02179055505f816003015f9054906101000a900473ffffffffffffffffffffffffffffffffffffffff1673ffffffffffffffffffffffffffffffffffffffff1682600501546040516125a990613bbe565b5f6040518083038185875af1925050503d805f81146125e3576040519150601f19603f3d011682016040523d82523d5f602084013e6125e8565b606091505b505090508061262c576040517f08c379a000000000000000000000000000000000000000000000000000000000815260040161262390613c1c565b60405180910390fd5b827fe18debf292fbfc1f009a15d4e4932c1da2be34d7343f86f50989d09a04571e1b836003015f9054906101000a900473ffffffffffffffffffffffffffffffffffffffff168460050154604051612685929190613c3a565b60405180910390a25050612697612cf3565b50565b5f600454905090565b6126ab612deb565b60075f8381526020019081526020015f20604051806101600160405290815f82015481526020016001820154815260200160028201548152602001600382015f9054906101000a900473ffffffffffffffffffffffffffffffffffffffff1673ffffffffffffffffffffffffffffffffffffffff1673ffffffffffffffffffffffffffffffffffffffff168152602001600482015f9054906101000a900473ffffffffffffffffffffffffffffffffffffffff1673ffffffffffffffffffffffffffffffffffffffff1673ffffffffffffffffffffffffffffffffffffffff168152602001600582015481526020016006820154815260200160078201548152602001600882015481526020016009820180546127c790613a91565b80601f01602080910402602001604051908101604052809291908181526020018280546127f390613a91565b801561283e5780601f106128155761010080835404028352916020019161283e565b820191905f5260205f20905b81548152906001019060200180831161282157829003601f168201915b50505050508152602001600a82015f9054906101000a900460ff16600281111561286b5761286a6135a3565b5b600281111561287d5761287c6135a3565b5b815250509050919050565b6006602052805f5260405f205f91509050805f015490806001015490806002015f9054906101000a900473ffffffffffffffffffffffffffffffffffffffff1690806003015490806004015490806005015f9054906101000a900460ff16905086565b6128f3612b89565b5f73ffffffffffffffffffffffffffffffffffffffff168173ffffffffffffffffffffffffffffffffffffffff1603612963575f6040517f1e4fbdf700000000000000000000000000000000000000000000000000000000815260040161295a91906133a2565b60405180910390fd5b61296c81612c10565b50565b60035f9054906101000a900460ff16156129be576040517f08c379a00000000000000000000000000000000000000000000000000000000081526004016129b590613e46565b60405180910390fd5b5f60065f8581526020019081526020015f2090503373ffffffffffffffffffffffffffffffffffffffff16816002015f9054906101000a900473ffffffffffffffffffffffffffffffffffffffff1673ffffffffffffffffffffffffffffffffffffffff1614612a63576040517f08c379a0000000000000000000000000000000000000000000000000000000008152600401612a5a90614a78565b60405180910390fd5b806005015f9054906101000a900460ff16612ab3576040517f08c379a0000000000000000000000000000000000000000000000000000000008152600401612aaa906142b1565b60405180910390fd5b5f8311612af5576040517f08c379a0000000000000000000000000000000000000000000000000000000008152600401612aec90613eae565b60405180910390fd5b5f8211612b37576040517f08c379a0000000000000000000000000000000000000000000000000000000008152600401612b2e90613f3c565b60405180910390fd5b828160030181905550818160040181905550837ff7adc9a0380a940c6058d78194df6a9b9fa5bb431bbad15194913bb611f3f4f78484604051612b7b929190614240565b60405180910390a250505050565b612b91612d0d565b73ffffffffffffffffffffffffffffffffffffffff16612baf6114c3565b73ffffffffffffffffffffffffffffffffffffffff1614612c0e57612bd2612d0d565b6040517f118cdaa7000000000000000000000000000000000000000000000000000000008152600401612c0591906133a2565b60405180910390fd5b565b5f5f5f9054906101000a900473ffffffffffffffffffffffffffffffffffffffff169050815f5f6101000a81548173ffffffffffffffffffffffffffffffffffffffff021916908373ffffffffffffffffffffffffffffffffffffffff1602179055508173ffffffffffffffffffffffffffffffffffffffff168173ffffffffffffffffffffffffffffffffffffffff167f8be0079c531659141344cd1fd0a4f28419497f9722a3daafe3b4186f6b6457e060405160405180910390a35050565b612cd9612d14565b6002612ceb612ce6612d55565b612d7e565b5f0181905550565b6001612d05612d00612d55565b612d7e565b5f0181905550565b5f33905090565b612d1c612d87565b15612d53576040517f3ee5aeb500000000000000000000000000000000000000000000000000000000815260040160405180910390fd5b565b5f7f9b779b17422d0df92223018b32b4d1fa46e071723d6817e2486d003becc55f005f1b905090565b5f819050919050565b5f6002612d9a612d95612d55565b612d7e565b5f015414905090565b6040518060c001604052805f81526020015f81526020015f73ffffffffffffffffffffffffffffffffffffffff1681526020015f81526020015f81526020015f151581525090565b6040518061016001604052805f81526020015f81526020015f81526020015f73ffffffffffffffffffffffffffffffffffffffff1681526020015f73ffffffffffffffffffffffffffffffffffffffff1681526020015f81526020015f81526020015f81526020015f8152602001606081526020015f6002811115612e7357612e726135a3565b5b81525090565b5f604051905090565b5f5ffd5b5f5ffd5b5f819050919050565b612e9c81612e8a565b8114612ea6575f5ffd5b50565b5f81359050612eb781612e93565b92915050565b5f60208284031215612ed257612ed1612e82565b5b5f612edf84828501612ea9565b91505092915050565b612ef181612e8a565b82525050565b5f73ffffffffffffffffffffffffffffffffffffffff82169050919050565b5f612f2082612ef7565b9050919050565b612f3081612f16565b82525050565b5f8115159050919050565b612f4a81612f36565b82525050565b60c082015f820151612f645f850182612ee8565b506020820151612f776020850182612ee8565b506040820151612f8a6040850182612f27565b506060820151612f9d6060850182612ee8565b506080820151612fb06080850182612ee8565b5060a0820151612fc360a0850182612f41565b50505050565b5f60c082019050612fdc5f830184612f50565b92915050565b5f81519050919050565b5f82825260208201905092915050565b8281835e5f83830152505050565b5f601f19601f8301169050919050565b5f61302482612fe2565b61302e8185612fec565b935061303e818560208601612ffc565b6130478161300a565b840191505092915050565b5f6020820190508181035f83015261306a818461301a565b905092915050565b61307b81612f36565b8114613085575f5ffd5b50565b5f8135905061309681613072565b92915050565b5f602082840312156130b1576130b0612e82565b5b5f6130be84828501613088565b91505092915050565b6130d081612e8a565b82525050565b5f6020820190506130e95f8301846130c7565b92915050565b6130f881612f36565b82525050565b5f6020820190506131115f8301846130ef565b92915050565b5f61312182612ef7565b9050919050565b61313181613117565b811461313b575f5ffd5b50565b5f8135905061314c81613128565b92915050565b5f6020828403121561316757613166612e82565b5b5f6131748482850161313e565b91505092915050565b5f81519050919050565b5f82825260208201905092915050565b5f819050602082019050919050565b60c082015f8201516131ba5f850182612ee8565b5060208201516131cd6020850182612ee8565b5060408201516131e06040850182612f27565b5060608201516131f36060850182612ee8565b5060808201516132066080850182612ee8565b5060a082015161321960a0850182612f41565b50505050565b5f61322a83836131a6565b60c08301905092915050565b5f602082019050919050565b5f61324c8261317d565b6132568185613187565b935061326183613197565b805f5b83811015613291578151613278888261321f565b975061328383613236565b925050600181019050613264565b5085935050505092915050565b5f6020820190508181035f8301526132b68184613242565b905092915050565b5f5f5f606084860312156132d5576132d4612e82565b5b5f6132e286828701612ea9565b93505060206132f386828701612ea9565b925050604061330486828701612ea9565b9150509250925092565b5f819050919050565b6133208161330e565b811461332a575f5ffd5b50565b5f8135905061333b81613317565b92915050565b5f6020828403121561335657613355612e82565b5b5f6133638482850161332d565b91505092915050565b5f60408201905061337f5f8301856130ef565b61338c60208301846130c7565b9392505050565b61339c81613117565b82525050565b5f6020820190506133b55f830184613393565b92915050565b5f819050919050565b5f6133de6133d96133d484612ef7565b6133bb565b612ef7565b9050919050565b5f6133ef826133c4565b9050919050565b5f613400826133e5565b9050919050565b613410816133f6565b82525050565b5f6020820190506134295f830184613407565b92915050565b5f5ffd5b5f5ffd5b5f5ffd5b5f5f83601f8401126134505761344f61342f565b5b8235905067ffffffffffffffff81111561346d5761346c613433565b5b60208301915083600182028301111561348957613488613437565b5b9250929050565b5f5f5f5f5f608086880312156134a9576134a8612e82565b5b5f6134b688828901612ea9565b95505060206134c788828901612ea9565b94505060406134d88882890161332d565b935050606086013567ffffffffffffffff8111156134f9576134f8612e86565b5b6135058882890161343b565b92509250509295509295909350565b5f81519050919050565b5f82825260208201905092915050565b5f819050602082019050919050565b61354681613117565b82525050565b6135558161330e565b82525050565b5f82825260208201905092915050565b5f61357582612fe2565b61357f818561355b565b935061358f818560208601612ffc565b6135988161300a565b840191505092915050565b7f4e487b71000000000000000000000000000000000000000000000000000000005f52602160045260245ffd5b600381106135e1576135e06135a3565b5b50565b5f8190506135f1826135d0565b919050565b5f613600826135e4565b9050919050565b613610816135f6565b82525050565b5f61016083015f83015161362c5f860182612ee8565b50602083015161363f6020860182612ee8565b5060408301516136526040860182612ee8565b506060830151613665606086018261353d565b506080830151613678608086018261353d565b5060a083015161368b60a0860182612ee8565b5060c083015161369e60c0860182612ee8565b5060e08301516136b160e0860182612ee8565b506101008301516136c661010086018261354c565b506101208301518482036101208601526136e0828261356b565b9150506101408301516136f7610140860182613607565b508091505092915050565b5f61370d8383613616565b905092915050565b5f602082019050919050565b5f61372b82613514565b613735818561351e565b9350836020820285016137478561352e565b805f5b8581101561378257848403895281516137638582613702565b945061376e83613715565b925060208a0199505060018101905061374a565b50829750879550505050505092915050565b5f6020820190508181035f8301526137ac8184613721565b905092915050565b6137bd8161330e565b82525050565b6137cc816135f6565b82525050565b5f610160820190506137e65f83018e6130c7565b6137f3602083018d6130c7565b613800604083018c6130c7565b61380d606083018b613393565b61381a608083018a613393565b61382760a08301896130c7565b61383460c08301886130c7565b61384160e08301876130c7565b61384f6101008301866137b4565b818103610120830152613862818561301a565b90506138726101408301846137c3565b9c9b505050505050505050505050565b5f61016083015f8301516138985f860182612ee8565b5060208301516138ab6020860182612ee8565b5060408301516138be6040860182612ee8565b5060608301516138d1606086018261353d565b5060808301516138e4608086018261353d565b5060a08301516138f760a0860182612ee8565b5060c083015161390a60c0860182612ee8565b5060e083015161391d60e0860182612ee8565b5061010083015161393261010086018261354c565b5061012083015184820361012086015261394c828261356b565b915050610140830151613963610140860182613607565b508091505092915050565b5f6020820190508181035f8301526139868184613882565b905092915050565b61399781612f16565b82525050565b5f60c0820190506139b05f8301896130c7565b6139bd60208301886130c7565b6139ca604083018761398e565b6139d760608301866130c7565b6139e460808301856130c7565b6139f160a08301846130ef565b979650505050505050565b7f4d61726b6574706c6163653a20756e6b6e6f776e206f726465720000000000005f82015250565b5f613a30601a83612fec565b9150613a3b826139fc565b602082019050919050565b5f6020820190508181035f830152613a5d81613a24565b9050919050565b7f4e487b71000000000000000000000000000000000000000000000000000000005f52602260045260245ffd5b5f6002820490506001821680613aa857607f821691505b602082108103613abb57613aba613a64565b5b50919050565b7f4d61726b6574706c6163653a206e6f742073656c6c6572206f722061646d696e5f82015250565b5f613af5602083612fec565b9150613b0082613ac1565b602082019050919050565b5f6020820190508181035f830152613b2281613ae9565b9050919050565b7f4d61726b6574706c6163653a206e6f7468696e6720746f2077697468647261775f82015250565b5f613b5d602083612fec565b9150613b6882613b29565b602082019050919050565b5f6020820190508181035f830152613b8a81613b51565b9050919050565b5f81905092915050565b50565b5f613ba95f83613b91565b9150613bb482613b9b565b5f82019050919050565b5f613bc882613b9e565b9150819050919050565b7f4d61726b6574706c6163653a20455448207472616e73666572206661696c65645f82015250565b5f613c06602083612fec565b9150613c1182613bd2565b602082019050919050565b5f6020820190508181035f830152613c3381613bfa565b9050919050565b5f604082019050613c4d5f830185613393565b613c5a60208301846130c7565b9392505050565b7f4e487b71000000000000000000000000000000000000000000000000000000005f52604160045260245ffd5b7f4e487b71000000000000000000000000000000000000000000000000000000005f52603260045260245ffd5b7f4e487b71000000000000000000000000000000000000000000000000000000005f52601160045260245ffd5b5f613cf282612e8a565b91507fffffffffffffffffffffffffffffffffffffffffffffffffffffffffffffffff8203613d2457613d23613cbb565b5b600182019050919050565b5f81519050613d3d81613072565b92915050565b5f60208284031215613d5857613d57612e82565b5b5f613d6584828501613d2f565b91505092915050565b7f4d61726b6574706c6163653a206e6f742061646d696e206f7220617070726f765f8201527f65642073656c6c65720000000000000000000000000000000000000000000000602082015250565b5f613dc8602983612fec565b9150613dd382613d6e565b604082019050919050565b5f6020820190508181035f830152613df581613dbc565b9050919050565b7f4d61726b6574706c6163653a20706175736564000000000000000000000000005f82015250565b5f613e30601383612fec565b9150613e3b82613dfc565b602082019050919050565b5f6020820190508181035f830152613e5d81613e24565b9050919050565b7f4d61726b6574706c6163653a207072696365206d757374206265203e203000005f82015250565b5f613e98601e83612fec565b9150613ea382613e64565b602082019050919050565b5f6020820190508181035f830152613ec581613e8c565b9050919050565b7f4d61726b6574706c6163653a207175616e74697479206d757374206265203e205f8201527f3000000000000000000000000000000000000000000000000000000000000000602082015250565b5f613f26602183612fec565b9150613f3182613ecc565b604082019050919050565b5f6020820190508181035f830152613f5381613f1a565b9050919050565b5f5ffd5b613f678261300a565b810181811067ffffffffffffffff82111715613f8657613f85613c61565b5b80604052505050565b5f613f98612e79565b9050613fa48282613f5e565b919050565b5f5ffd5b5f81519050613fbb81612e93565b92915050565b5f5ffd5b5f67ffffffffffffffff821115613fdf57613fde613c61565b5b613fe88261300a565b9050602081019050919050565b5f61400761400284613fc5565b613f8f565b90508281526020810184848401111561402357614022613fc1565b5b61402e848285612ffc565b509392505050565b5f82601f83011261404a5761404961342f565b5b815161405a848260208601613ff5565b91505092915050565b5f8151905061407181613128565b92915050565b5f60a0828403121561408c5761408b613f5a565b5b61409660a0613f8f565b90505f6140a584828501613fad565b5f83015250602082015167ffffffffffffffff8111156140c8576140c7613fa9565b5b6140d484828501614036565b602083015250604082015167ffffffffffffffff8111156140f8576140f7613fa9565b5b61410484828501614036565b604083015250606061411884828501614063565b606083015250608061412c84828501613d2f565b60808301525092915050565b5f6020828403121561414d5761414c612e82565b5b5f82015167ffffffffffffffff81111561416a57614169612e86565b5b61417684828501614077565b91505092915050565b7f4d61726b6574706c6163653a2070726f64756374206973206e6f7420616374695f8201527f7665000000000000000000000000000000000000000000000000000000000000602082015250565b5f6141d9602283612fec565b91506141e48261417f565b604082019050919050565b5f6020820190508181035f830152614206816141cd565b9050919050565b5f61421782612e8a565b915061422283612e8a565b925082820190508082111561423a57614239613cbb565b5b92915050565b5f6040820190506142535f8301856130c7565b61426060208301846130c7565b9392505050565b7f4d61726b6574706c6163653a206c697374696e67206e6f7420616374697665005f82015250565b5f61429b601f83612fec565b91506142a682614267565b602082019050919050565b5f6020820190508181035f8301526142c88161428f565b9050919050565b7f4d61726b6574706c6163653a20696e73756666696369656e742073746f636b005f82015250565b5f614303601f83612fec565b915061430e826142cf565b602082019050919050565b5f6020820190508181035f830152614330816142f7565b9050919050565b7f4d61726b6574706c6163653a2073656c6c65722063616e6e6f742073656c662d5f8201527f6f72646572000000000000000000000000000000000000000000000000000000602082015250565b5f614391602583612fec565b915061439c82614337565b604082019050919050565b5f6020820190508181035f8301526143be81614385565b9050919050565b7f4d61726b6574706c6163653a20656d70747920726563656970742068617368005f82015250565b5f6143f9601f83612fec565b9150614404826143c5565b602082019050919050565b5f6020820190508181035f830152614426816143ed565b9050919050565b7f4d61726b6574706c6163653a20656d70747920726563656970742055524900005f82015250565b5f614461601e83612fec565b915061446c8261442d565b602082019050919050565b5f6020820190508181035f83015261448e81614455565b9050919050565b7f4d61726b6574706c6163653a206475706c6963617465207265636569707420685f8201527f6173680000000000000000000000000000000000000000000000000000000000602082015250565b5f6144ef602383612fec565b91506144fa82614495565b604082019050919050565b5f6020820190508181035f83015261451c816144e3565b9050919050565b5f61452d82612e8a565b915061453883612e8a565b925082820261454681612e8a565b9150828204841483151761455d5761455c613cbb565b5b5092915050565b7f4d61726b6574706c6163653a2077726f6e672045544820287072696365202a205f8201527f717479202b20706c6174666f726d466565290000000000000000000000000000602082015250565b5f6145be603283612fec565b91506145c982614564565b604082019050919050565b5f6020820190508181035f8301526145eb816145b2565b9050919050565b5f6145fc82612e8a565b915061460783612e8a565b925082820390508181111561461f5761461e613cbb565b5b92915050565b5f819050815f5260205f209050919050565b5f6020601f8301049050919050565b5f82821b905092915050565b5f600883026146817fffffffffffffffffffffffffffffffffffffffffffffffffffffffffffffffff82614646565b61468b8683614646565b95508019841693508086168417925050509392505050565b5f6146bd6146b86146b384612e8a565b6133bb565b612e8a565b9050919050565b5f819050919050565b6146d6836146a3565b6146ea6146e2826146c4565b848454614652565b825550505050565b5f5f905090565b6147016146f2565b61470c8184846146cd565b505050565b5f5b82811015614732576147275f8284016146f9565b600181019050614713565b505050565b601f82111561478557828211156147845761475181614625565b61475a83614637565b61476385614637565b6020861015614770575f90505b80830161477f82840382614711565b505050505b5b505050565b5f82821c905092915050565b5f6147a55f198460080261478a565b1980831691505092915050565b5f6147bd8383614796565b9150826002028217905092915050565b6147d682612fe2565b67ffffffffffffffff8111156147ef576147ee613c61565b5b6147f98254613a91565b614804828285614737565b5f60209050601f831160018114614835575f8415614823578287015190505b61482d85826147b2565b865550614894565b601f19841661484386614625565b5f5b8281101561486a57848901518255600182019150602085019450602081019050614845565b868310156148875784890151614883601f891682614796565b8355505b6001600288020188555050505b505050505050565b5f6148a6826133e5565b9050919050565b6148b68161489c565b82525050565b828183375f83830152505050565b5f6148d58385612fec565b93506148e28385846148bc565b6148eb8361300a565b840190509392505050565b5f60c0820190506149095f83018a613393565b61491660208301896148ad565b61492360408301886130c7565b61493060608301876130c7565b61493d60808301866137b4565b81810360a08301526149508184866148ca565b905098975050505050505050565b7f4d61726b6574706c6163653a206e6f742064697370757461626c6500000000005f82015250565b5f614992601b83612fec565b915061499d8261495e565b602082019050919050565b5f6020820190508181035f8301526149bf81614986565b9050919050565b7f4d61726b6574706c6163653a206e6f7420726566756e6461626c6500000000005f82015250565b5f6149fa601b83612fec565b9150614a05826149c6565b602082019050919050565b5f6020820190508181035f830152614a27816149ee565b9050919050565b7f4d61726b6574706c6163653a206e6f74206c697374696e672073656c6c6572005f82015250565b5f614a62601f83612fec565b9150614a6d82614a2e565b602082019050919050565b5f6020820190508181035f830152614a8f81614a56565b905091905056fea26469706673582212207311d0cfcefbbb2727c27bfc5cdc70e2055cad5a1ecdfb7dd1d5cf4d389dc4f964736f6c63430008210033","linkReferences":{}},"methodIdentifiers":{"compareListings(uint256)":"bda788ab","deactivateListing(uint256)":"3b8d915f","disputeOrder(uint256)":"a09970b2","getAllActiveListings()":"701e5084","getBuyerOrders(address)":"a45f2ebc","getListing(uint256)":"107a274a","getOrder(uint256)":"d09ef241","getReceiptURI(uint256)":"125bc603","getSellerListings(address)":"5f42da09","listProduct(uint256,uint256,uint256)":"8162447c","listings(uint256)":"de74e57b","orders(uint256)":"a85c38ef","owner()":"8da5cb5b","paused()":"5c975abb","placeOrder(uint256,uint256,bytes32,string)":"9a75b163","platformFee()":"26232a2e","productNFT()":"8fcdeba1","receiptHashToOrder(bytes32)":"8c570aaf","refundOrder(uint256)":"c018c457","renounceOwnership()":"715018a6","setPaused(bool)":"16c38b3c","setPlatformFee(uint256)":"12e8e2c3","totalListings()":"c78b616c","totalOrders()":"1d834409","transferOwnership(address)":"f2fde38b","updateListing(uint256,uint256,uint256)":"f6cf2a16","verifyReceipt(bytes32)":"8174794e","withdrawFees()":"476343ee"},"id":41}